{"contracts/MultiSig.sol":{"MultiSig":{"abi":[{"inputs":[{"internalType":"address[]","name":"_owners","type":"address[]"},{"internalType":"uint256","name":"_required","type":"uint256"}],"stateMutability":"nonpayable","type":"constructor"},{"anonymous":false,"inputs":[{"indexed":true,"internalType":"address","name":"owner","type":"address"},{"indexed":true,"internalType":"uint256","name":"txId","type":"uint256"}],"name":"Approve","type":"event"},{"anonymous":false,"inputs":[{"indexed":true,"internalType":"address","name":"sender","type":"address"},{"indexed":false,"internalType":"uint256","name":"amount","type":"uint256"}],"name":"Deposit","type":"event"},{"anonymous":false,"inputs":[{"indexed":true,"internalType":"uint256","name":"txId","type":"uint256"}],"name":"Execute","type":"event"},{"anonymous":false,"inputs":[{"indexed":true,"internalType":"address","name":"owner","type":"address"},{"indexed":true,"internalType":"uint256","name":"txId","type":"uint256"}],"name":"Reject","type":"event"},{"anonymous":false,"inputs":[{"indexed":true,"internalType":"address","name":"owner","type":"address"},{"indexed":true,"internalType":"uint256","name":"txId","type":"uint256"}],"name":"Revoke","type":"event"},{"anonymous":false,"inputs":[{"indexed":true,"internalType":"uint256","name":"txId","type":"uint256"}],"name":"Submit","type":"event"},{"inputs":[{"internalType":"uint256","name":"","type":"uint256"},{"internalType":"address","name":"","type":"address"}],"name":"approval","outputs":[{"internalType":"enum MultiSig.Approval","name":"","type":"uint8"}],"stateMutability":"view","type":"function"},{"inputs":[{"internalType":"uint256","name":"_txId","type":"uint256"}],"name":"approve","outputs":[],"stateMutability":"nonpayable","type":"function"},{"inputs":[{"internalType":"uint256","name":"_txId","type":"uint256"}],"name":"execute","outputs":[],"stateMutability":"nonpayable","type":"function"},{"inputs":[],"name":"getTransactions","outputs":[{"components":[{"internalType":"uint256","name":"idx","type":"uint256"},{"internalType":"address","name":"to","type":"address"},{"internalType":"uint256","name":"value","type":"uint256"},{"internalType":"bytes","name":"data","type":"bytes"},{"internalType":"enum MultiSig.Status","name":"status","type":"uint8"}],"internalType":"struct MultiSig.Transaction[]","name":"","type":"tuple[]"}],"stateMutability":"view","type":"function"},{"inputs":[{"internalType":"address","name":"","type":"address"}],"name":"isOwner","outputs":[{"internalType":"bool","name":"","type":"bool"}],"stateMutability":"view","type":"function"},{"inputs":[{"internalType":"uint256","name":"","type":"uint256"}],"name":"owners","outputs":[{"internalType":"address","name":"","type":"address"}],"stateMutability":"view","type":"function"},{"inputs":[{"internalType":"uint256","name":"_txId","type":"uint256"}],"name":"reject","outputs":[],"stateMutability":"nonpayable","type":"function"},{"inputs":[],"name":"required","outputs":[{"internalType":"uint256","name":"","type":"uint256"}],"stateMutability":"view","type":"function"},{"inputs":[{"internalType":"uint256","name":"_txId","type":"uint256"}],"name":"revoke","outputs":[],"stateMutability":"nonpayable","type":"function"},{"inputs":[{"internalType":"address","name":"_to","type":"address"},{"internalType":"uint256","name":"_value","type":"uint256"}],"name":"submit","outputs":[],"stateMutability":"nonpayable","type":"function"},{"inputs":[{"internalType":"uint256","name":"","type":"uint256"}],"name":"transactions","outputs":[{"internalType":"uint256","name":"idx","type":"uint256"},{"internalType":"address","name":"to","type":"address"},{"internalType":"uint256","name":"value","type":"uint256"},{"internalType":"bytes","name":"data","type":"bytes"},{"internalType":"enum MultiSig.Status","name":"status","type":"uint8"}],"stateMutability":"view","type":"function"},{"stateMutability":"payable","type":"receive"}],"evm":{"bytecode":{"linkReferences":{},"object":"60806040523480156200001157600080fd5b50604051620028e8380380620028e883398181016040528101906200003791906200050e565b60018251116200007e576040517f08c379a00000000000000000000000000000000000000000000000000000000081526004016200007590620005d5565b60405180910390fd5b60018111801562000090575081518111155b620000d2576040517f08c379a0000000000000000000000000000000000000000000000000000000008152600401620000c99062000647565b60405180910390fd5b60005b8251811015620002d5576000838281518110620000f757620000f662000669565b5b60200260200101519050600073ffffffffffffffffffffffffffffffffffffffff168173ffffffffffffffffffffffffffffffffffffffff16141562000174576040517f08c379a00000000000000000000000000000000000000000000000000000000081526004016200016b90620006e8565b60405180910390fd5b600160008273ffffffffffffffffffffffffffffffffffffffff1673ffffffffffffffffffffffffffffffffffffffff16815260200190815260200160002060009054906101000a900460ff161562000204576040517f08c379a0000000000000000000000000000000000000000000000000000000008152600401620001fb906200075a565b60405180910390fd5b60018060008373ffffffffffffffffffffffffffffffffffffffff1673ffffffffffffffffffffffffffffffffffffffff16815260200190815260200160002060006101000a81548160ff0219169083151502179055506000819080600181540180825580915050600190039060005260206000200160009091909190916101000a81548173ffffffffffffffffffffffffffffffffffffffff021916908373ffffffffffffffffffffffffffffffffffffffff160217905550508080620002cc90620007ab565b915050620000d5565b50806002819055505050620007f9565b6000604051905090565b600080fd5b600080fd5b600080fd5b6000601f19601f8301169050919050565b7f4e487b7100000000000000000000000000000000000000000000000000000000600052604160045260246000fd5b6200034982620002fe565b810181811067ffffffffffffffff821117156200036b576200036a6200030f565b5b80604052505050565b600062000380620002e5565b90506200038e82826200033e565b919050565b600067ffffffffffffffff821115620003b157620003b06200030f565b5b602082029050602081019050919050565b600080fd5b600073ffffffffffffffffffffffffffffffffffffffff82169050919050565b6000620003f482620003c7565b9050919050565b6200040681620003e7565b81146200041257600080fd5b50565b6000815190506200042681620003fb565b92915050565b6000620004436200043d8462000393565b62000374565b90508083825260208201905060208402830185811115620004695762000468620003c2565b5b835b8181101562000496578062000481888262000415565b8452602084019350506020810190506200046b565b5050509392505050565b600082601f830112620004b857620004b7620002f9565b5b8151620004ca8482602086016200042c565b91505092915050565b6000819050919050565b620004e881620004d3565b8114620004f457600080fd5b50565b6000815190506200050881620004dd565b92915050565b60008060408385031215620005285762000527620002ef565b5b600083015167ffffffffffffffff811115620005495762000548620002f4565b5b6200055785828601620004a0565b92505060206200056a85828601620004f7565b9150509250929050565b600082825260208201905092915050565b7f4174206c656173742074776f206f776e65727320617265207265717569726564600082015250565b6000620005bd60208362000574565b9150620005ca8262000585565b602082019050919050565b60006020820190508181036000830152620005f081620005ae565b9050919050565b7f496e76616c6964206e756d626572206f66207369676e65727300000000000000600082015250565b60006200062f60198362000574565b91506200063c82620005f7565b602082019050919050565b60006020820190508181036000830152620006628162000620565b9050919050565b7f4e487b7100000000000000000000000000000000000000000000000000000000600052603260045260246000fd5b7f4f776e65722063616e6e6f7420626520746865207a65726f2061646472657373600082015250565b6000620006d060208362000574565b9150620006dd8262000698565b602082019050919050565b600060208201905081810360008301526200070381620006c1565b9050919050565b7f4f776e65722063616e6e6f742062652061206475706c69636174650000000000600082015250565b600062000742601b8362000574565b91506200074f826200070a565b602082019050919050565b60006020820190508181036000830152620007758162000733565b9050919050565b7f4e487b7100000000000000000000000000000000000000000000000000000000600052601160045260246000fd5b6000620007b882620004d3565b91507fffffffffffffffffffffffffffffffffffffffffffffffffffffffffffffffff821415620007ee57620007ed6200077c565b5b600182019050919050565b6120df80620008096000396000f3fe6080604052600436106100a05760003560e01c80639ace38c2116100645780639ace38c2146101f1578063b759f95414610232578063b848de351461025b578063b8adaa1114610298578063dc8452cd146102c1578063fe0d94c1146102ec576100f5565b8063025e7c27146100fa578063203dd6661461013757806320c5429b146101605780632f54bf6e1461018957806383920e90146101c6576100f5565b366100f5573373ffffffffffffffffffffffffffffffffffffffff167fe1fffcc4923d04b559f4d29a8bfc6cda04eb5b0d3c460751c2402c5c5cc9109c346040516100eb919061156e565b60405180910390a2005b600080fd5b34801561010657600080fd5b50610121600480360381019061011c91906115ba565b610315565b60405161012e9190611628565b60405180910390f35b34801561014357600080fd5b5061015e6004803603810190610159919061166f565b610354565b005b34801561016c57600080fd5b50610187600480360381019061018291906115ba565b61055b565b005b34801561019557600080fd5b506101b060048036038101906101ab91906116af565b61084f565b6040516101bd91906116f7565b60405180910390f35b3480156101d257600080fd5b506101db61086f565b6040516101e89190611978565b60405180910390f35b3480156101fd57600080fd5b50610218600480360381019061021391906115ba565b610a05565b6040516102299594939291906119f3565b60405180910390f35b34801561023e57600080fd5b50610259600480360381019061025491906115ba565b610b00565b005b34801561026757600080fd5b50610282600480360381019061027d9190611a4d565b610df7565b60405161028f9190611ad5565b60405180910390f35b3480156102a457600080fd5b506102bf60048036038101906102ba91906115ba565b610e26565b005b3480156102cd57600080fd5b506102d661111c565b6040516102e3919061156e565b60405180910390f35b3480156102f857600080fd5b50610313600480360381019061030e91906115ba565b611122565b005b6000818154811061032557600080fd5b906000526020600020016000915054906101000a900473ffffffffffffffffffffffffffffffffffffffff1681565b600160003373ffffffffffffffffffffffffffffffffffffffff1673ffffffffffffffffffffffffffffffffffffffff16815260200190815260200160002060009054906101000a900460ff166103e0576040517f08c379a00000000000000000000000000000000000000000000000000000000081526004016103d790611b4d565b60405180910390fd5b60036040518060a0016040528060038054905081526020018473ffffffffffffffffffffffffffffffffffffffff16815260200183815260200160405180602001604052806000815250815260200160006002811115610443576104426117f5565b5b81525090806001815401808255809150506001900390600052602060002090600502016000909190919091506000820151816000015560208201518160010160006101000a81548173ffffffffffffffffffffffffffffffffffffffff021916908373ffffffffffffffffffffffffffffffffffffffff1602179055506040820151816002015560608201518160030190805190602001906104e69291906114b2565b5060808201518160040160006101000a81548160ff02191690836002811115610512576105116117f5565b5b02179055505050600160038054905061052b9190611b9c565b7f08324b3d745b914e3abd4ffbfead91e3b78391a98c173202129215ab933adfbe60405160405180910390a25050565b600160003373ffffffffffffffffffffffffffffffffffffffff1673ffffffffffffffffffffffffffffffffffffffff16815260200190815260200160002060009054906101000a900460ff166105e7576040517f08c379a00000000000000000000000000000000000000000000000000000000081526004016105de90611b4d565b60405180910390fd5b80600380549050811061062f576040517f08c379a000000000000000000000000000000000000000000000000000000000815260040161062690611c1c565b60405180910390fd5b8160006002811115610644576106436117f5565b5b6003828154811061065857610657611c3c565b5b906000526020600020906005020160040160009054906101000a900460ff166002811115610689576106886117f5565b5b146106c9576040517f08c379a00000000000000000000000000000000000000000000000000000000081526004016106c090611cb7565b60405180910390fd5b600160028111156106dd576106dc6117f5565b5b6004600085815260200190815260200160002060003373ffffffffffffffffffffffffffffffffffffffff1673ffffffffffffffffffffffffffffffffffffffff16815260200190815260200160002060009054906101000a900460ff16600281111561074d5761074c6117f5565b5b1461078d576040517f08c379a000000000000000000000000000000000000000000000000000000000815260040161078490611d23565b60405180910390fd5b60006004600085815260200190815260200160002060003373ffffffffffffffffffffffffffffffffffffffff1673ffffffffffffffffffffffffffffffffffffffff16815260200190815260200160002060006101000a81548160ff02191690836002811115610801576108006117f5565b5b0217905550823373ffffffffffffffffffffffffffffffffffffffff167fec9ab91322523c899ede7830ec9bfc992b5981cdcc27b91162fb23de5791117b60405160405180910390a3505050565b60016020528060005260406000206000915054906101000a900460ff1681565b60606003805480602002602001604051908101604052809291908181526020016000905b828210156109fc57838290600052602060002090600502016040518060a0016040529081600082015481526020016001820160009054906101000a900473ffffffffffffffffffffffffffffffffffffffff1673ffffffffffffffffffffffffffffffffffffffff1673ffffffffffffffffffffffffffffffffffffffff1681526020016002820154815260200160038201805461093090611d72565b80601f016020809104026020016040519081016040528092919081815260200182805461095c90611d72565b80156109a95780601f1061097e576101008083540402835291602001916109a9565b820191906000526020600020905b81548152906001019060200180831161098c57829003601f168201915b505050505081526020016004820160009054906101000a900460ff1660028111156109d7576109d66117f5565b5b60028111156109e9576109e86117f5565b5b8152505081526020019060010190610893565b50505050905090565b60038181548110610a1557600080fd5b90600052602060002090600502016000915090508060000154908060010160009054906101000a900473ffffffffffffffffffffffffffffffffffffffff1690806002015490806003018054610a6a90611d72565b80601f0160208091040260200160405190810160405280929190818152602001828054610a9690611d72565b8015610ae35780601f10610ab857610100808354040283529160200191610ae3565b820191906000526020600020905b815481529060010190602001808311610ac657829003601f168201915b5050505050908060040160009054906101000a900460ff16905085565b600160003373ffffffffffffffffffffffffffffffffffffffff1673ffffffffffffffffffffffffffffffffffffffff16815260200190815260200160002060009054906101000a900460ff16610b8c576040517f08c379a0000000000000000000000000000000000000000000000000000000008152600401610b8390611b4d565b60405180910390fd5b806003805490508110610bd4576040517f08c379a0000000000000000000000000000000000000000000000000000000008152600401610bcb90611c1c565b60405180910390fd5b8160016002811115610be957610be86117f5565b5b6004600083815260200190815260200160002060003373ffffffffffffffffffffffffffffffffffffffff1673ffffffffffffffffffffffffffffffffffffffff16815260200190815260200160002060009054906101000a900460ff166002811115610c5957610c586117f5565b5b1415610c9a576040517f08c379a0000000000000000000000000000000000000000000000000000000008152600401610c9190611df0565b60405180910390fd5b8260006002811115610caf57610cae6117f5565b5b60038281548110610cc357610cc2611c3c565b5b906000526020600020906005020160040160009054906101000a900460ff166002811115610cf457610cf36117f5565b5b14610d34576040517f08c379a0000000000000000000000000000000000000000000000000000000008152600401610d2b90611cb7565b60405180910390fd5b60016004600086815260200190815260200160002060003373ffffffffffffffffffffffffffffffffffffffff1673ffffffffffffffffffffffffffffffffffffffff16815260200190815260200160002060006101000a81548160ff02191690836002811115610da857610da76117f5565b5b0217905550833373ffffffffffffffffffffffffffffffffffffffff167f90ec57f18fa7b15c6b8d5e4d1deb90796c74b2ff23d4d0cecad0cb42a96b312860405160405180910390a350505050565b60046020528160005260406000206020528060005260406000206000915091509054906101000a900460ff1681565b600160003373ffffffffffffffffffffffffffffffffffffffff1673ffffffffffffffffffffffffffffffffffffffff16815260200190815260200160002060009054906101000a900460ff16610eb2576040517f08c379a0000000000000000000000000000000000000000000000000000000008152600401610ea990611b4d565b60405180910390fd5b806003805490508110610efa576040517f08c379a0000000000000000000000000000000000000000000000000000000008152600401610ef190611c1c565b60405180910390fd5b81600280811115610f0e57610f0d6117f5565b5b6004600083815260200190815260200160002060003373ffffffffffffffffffffffffffffffffffffffff1673ffffffffffffffffffffffffffffffffffffffff16815260200190815260200160002060009054906101000a900460ff166002811115610f7e57610f7d6117f5565b5b1415610fbf576040517f08c379a0000000000000000000000000000000000000000000000000000000008152600401610fb690611e5c565b60405180910390fd5b8260006002811115610fd457610fd36117f5565b5b60038281548110610fe857610fe7611c3c565b5b906000526020600020906005020160040160009054906101000a900460ff166002811115611019576110186117f5565b5b14611059576040517f08c379a000000000000000000000000000000000000000000000000000000000815260040161105090611cb7565b60405180910390fd5b60026004600086815260200190815260200160002060003373ffffffffffffffffffffffffffffffffffffffff1673ffffffffffffffffffffffffffffffffffffffff16815260200190815260200160002060006101000a81548160ff021916908360028111156110cd576110cc6117f5565b5b0217905550833373ffffffffffffffffffffffffffffffffffffffff167f8dc2b2096831716168cffd747478656d933f1e8e905500aa02153f1c5008c50260405160405180910390a350505050565b60025481565b80600380549050811061116a576040517f08c379a000000000000000000000000000000000000000000000000000000000815260040161116190611c1c565b60405180910390fd5b816000600281111561117f5761117e6117f5565b5b6003828154811061119357611192611c3c565b5b906000526020600020906005020160040160009054906101000a900460ff1660028111156111c4576111c36117f5565b5b14611204576040517f08c379a00000000000000000000000000000000000000000000000000000000081526004016111fb90611cb7565b60405180910390fd5b600254611210846113b1565b1015611251576040517f08c379a000000000000000000000000000000000000000000000000000000000815260040161124890611ec8565b60405180910390fd5b60006003848154811061126757611266611c3c565b5b9060005260206000209060050201905060018160040160006101000a81548160ff0219169083600281111561129f5761129e6117f5565b5b021790555060008160010160009054906101000a900473ffffffffffffffffffffffffffffffffffffffff1673ffffffffffffffffffffffffffffffffffffffff168260020154836003016040516112f79190611f87565b60006040518083038185875af1925050503d8060008114611334576040519150601f19603f3d011682016040523d82523d6000602084013e611339565b606091505b505090508061137d576040517f08c379a000000000000000000000000000000000000000000000000000000000815260040161137490611fea565b60405180910390fd5b847fddb556f1d2c1ec821e910b019d3685b229db152a0ecd517ca7e24b8bd713928960405160405180910390a25050505050565b6000805b6000805490508110156114ac57600160028111156113d6576113d56117f5565b5b6004600085815260200190815260200160002060008084815481106113fe576113fd611c3c565b5b9060005260206000200160009054906101000a900473ffffffffffffffffffffffffffffffffffffffff1673ffffffffffffffffffffffffffffffffffffffff1673ffffffffffffffffffffffffffffffffffffffff16815260200190815260200160002060009054906101000a900460ff166002811115611483576114826117f5565b5b141561149957600182611496919061200a565b91505b80806114a490612060565b9150506113b5565b50919050565b8280546114be90611d72565b90600052602060002090601f0160209004810192826114e05760008555611527565b82601f106114f957805160ff1916838001178555611527565b82800160010185558215611527579182015b8281111561152657825182559160200191906001019061150b565b5b5090506115349190611538565b5090565b5b80821115611551576000816000905550600101611539565b5090565b6000819050919050565b61156881611555565b82525050565b6000602082019050611583600083018461155f565b92915050565b600080fd5b61159781611555565b81146115a257600080fd5b50565b6000813590506115b48161158e565b92915050565b6000602082840312156115d0576115cf611589565b5b60006115de848285016115a5565b91505092915050565b600073ffffffffffffffffffffffffffffffffffffffff82169050919050565b6000611612826115e7565b9050919050565b61162281611607565b82525050565b600060208201905061163d6000830184611619565b92915050565b61164c81611607565b811461165757600080fd5b50565b60008135905061166981611643565b92915050565b6000806040838503121561168657611685611589565b5b60006116948582860161165a565b92505060206116a5858286016115a5565b9150509250929050565b6000602082840312156116c5576116c4611589565b5b60006116d38482850161165a565b91505092915050565b60008115159050919050565b6116f1816116dc565b82525050565b600060208201905061170c60008301846116e8565b92915050565b600081519050919050565b600082825260208201905092915050565b6000819050602082019050919050565b61174781611555565b82525050565b61175681611607565b82525050565b600081519050919050565b600082825260208201905092915050565b60005b8381101561179657808201518184015260208101905061177b565b838111156117a5576000848401525b50505050565b6000601f19601f8301169050919050565b60006117c78261175c565b6117d18185611767565b93506117e1818560208601611778565b6117ea816117ab565b840191505092915050565b7f4e487b7100000000000000000000000000000000000000000000000000000000600052602160045260246000fd5b60038110611835576118346117f5565b5b50565b600081905061184682611824565b919050565b600061185682611838565b9050919050565b6118668161184b565b82525050565b600060a083016000830151611884600086018261173e565b506020830151611897602086018261174d565b5060408301516118aa604086018261173e565b50606083015184820360608601526118c282826117bc565b91505060808301516118d7608086018261185d565b508091505092915050565b60006118ee838361186c565b905092915050565b6000602082019050919050565b600061190e82611712565b611918818561171d565b93508360208202850161192a8561172e565b8060005b85811015611966578484038952815161194785826118e2565b9450611952836118f6565b925060208a0199505060018101905061192e565b50829750879550505050505092915050565b600060208201905081810360008301526119928184611903565b905092915050565b600082825260208201905092915050565b60006119b68261175c565b6119c0818561199a565b93506119d0818560208601611778565b6119d9816117ab565b840191505092915050565b6119ed8161184b565b82525050565b600060a082019050611a08600083018861155f565b611a156020830187611619565b611a22604083018661155f565b8181036060830152611a3481856119ab565b9050611a4360808301846119e4565b9695505050505050565b60008060408385031215611a6457611a63611589565b5b6000611a72858286016115a5565b9250506020611a838582860161165a565b9150509250929050565b60038110611a9e57611a9d6117f5565b5b50565b6000819050611aaf82611a8d565b919050565b6000611abf82611aa1565b9050919050565b611acf81611ab4565b82525050565b6000602082019050611aea6000830184611ac6565b92915050565b600082825260208201905092915050565b7f4e6f7420616e206f776e65720000000000000000000000000000000000000000600082015250565b6000611b37600c83611af0565b9150611b4282611b01565b602082019050919050565b60006020820190508181036000830152611b6681611b2a565b9050919050565b7f4e487b7100000000000000000000000000000000000000000000000000000000600052601160045260246000fd5b6000611ba782611555565b9150611bb283611555565b925082821015611bc557611bc4611b6d565b5b828203905092915050565b7f747820646f6573206e6f74206578697374000000000000000000000000000000600082015250565b6000611c06601183611af0565b9150611c1182611bd0565b602082019050919050565b60006020820190508181036000830152611c3581611bf9565b9050919050565b7f4e487b7100000000000000000000000000000000000000000000000000000000600052603260045260246000fd5b7f747820616c726561647920657865637574656400000000000000000000000000600082015250565b6000611ca1601383611af0565b9150611cac82611c6b565b602082019050919050565b60006020820190508181036000830152611cd081611c94565b9050919050565b7f7478206e6f7420617070726f7665640000000000000000000000000000000000600082015250565b6000611d0d600f83611af0565b9150611d1882611cd7565b602082019050919050565b60006020820190508181036000830152611d3c81611d00565b9050919050565b7f4e487b7100000000000000000000000000000000000000000000000000000000600052602260045260246000fd5b60006002820490506001821680611d8a57607f821691505b60208210811415611d9e57611d9d611d43565b5b50919050565b7f747820616c726561647920617070726f76656400000000000000000000000000600082015250565b6000611dda601383611af0565b9150611de582611da4565b602082019050919050565b60006020820190508181036000830152611e0981611dcd565b9050919050565b7f747820616c72656164792072656a656374656400000000000000000000000000600082015250565b6000611e46601383611af0565b9150611e5182611e10565b602082019050919050565b60006020820190508181036000830152611e7581611e39565b9050919050565b7f4e6f7420656e6f75676820617070726f76616c73000000000000000000000000600082015250565b6000611eb2601483611af0565b9150611ebd82611e7c565b602082019050919050565b60006020820190508181036000830152611ee181611ea5565b9050919050565b600081905092915050565b60008190508160005260206000209050919050565b60008154611f1581611d72565b611f1f8186611ee8565b94506001821660008114611f3a5760018114611f4b57611f7e565b60ff19831686528186019350611f7e565b611f5485611ef3565b60005b83811015611f7657815481890152600182019150602081019050611f57565b838801955050505b50505092915050565b6000611f938284611f08565b915081905092915050565b7f5472616e73616374696f6e206661696c65640000000000000000000000000000600082015250565b6000611fd4601283611af0565b9150611fdf82611f9e565b602082019050919050565b6000602082019050818103600083015261200381611fc7565b9050919050565b600061201582611555565b915061202083611555565b9250827fffffffffffffffffffffffffffffffffffffffffffffffffffffffffffffffff0382111561205557612054611b6d565b5b828201905092915050565b600061206b82611555565b91507fffffffffffffffffffffffffffffffffffffffffffffffffffffffffffffffff82141561209e5761209d611b6d565b5b60018201905091905056fea26469706673582212203a1e80b3361e9e3ed3281e34befeafec12efbb8da7c5237dbfa67f65dcfabb6164736f6c634300080a0033","opcodes":"PUSH1 0x80 PUSH1 0x40 MSTORE CALLVALUE DUP1 ISZERO PUSH3 0x11 JUMPI PUSH1 0x0 DUP1 REVERT JUMPDEST POP PUSH1 0x40 MLOAD PUSH3 0x28E8 CODESIZE SUB DUP1 PUSH3 0x28E8 DUP4 CODECOPY DUP2 DUP2 ADD PUSH1 0x40 MSTORE DUP2 ADD SWAP1 PUSH3 0x37 SWAP2 SWAP1 PUSH3 0x50E JUMP JUMPDEST PUSH1 0x1 DUP3 MLOAD GT PUSH3 0x7E JUMPI PUSH1 0x40 MLOAD PUSH32 0x8C379A000000000000000000000000000000000000000000000000000000000 DUP2 MSTORE PUSH1 0x4 ADD PUSH3 0x75 SWAP1 PUSH3 0x5D5 JUMP JUMPDEST PUSH1 0x40 MLOAD DUP1 SWAP2 SUB SWAP1 REVERT JUMPDEST PUSH1 0x1 DUP2 GT DUP1 ISZERO PUSH3 0x90 JUMPI POP DUP2 MLOAD DUP2 GT ISZERO JUMPDEST PUSH3 0xD2 JUMPI PUSH1 0x40 MLOAD PUSH32 0x8C379A000000000000000000000000000000000000000000000000000000000 DUP2 MSTORE PUSH1 0x4 ADD PUSH3 0xC9 SWAP1 PUSH3 0x647 JUMP JUMPDEST PUSH1 0x40 MLOAD DUP1 SWAP2 SUB SWAP1 REVERT JUMPDEST PUSH1 0x0 JUMPDEST DUP3 MLOAD DUP2 LT ISZERO PUSH3 0x2D5 JUMPI PUSH1 0x0 DUP4 DUP3 DUP2 MLOAD DUP2 LT PUSH3 0xF7 JUMPI PUSH3 0xF6 PUSH3 0x669 JUMP JUMPDEST JUMPDEST PUSH1 0x20 MUL PUSH1 0x20 ADD ADD MLOAD SWAP1 POP PUSH1 0x0 PUSH20 0xFFFFFFFFFFFFFFFFFFFFFFFFFFFFFFFFFFFFFFFF AND DUP2 PUSH20 0xFFFFFFFFFFFFFFFFFFFFFFFFFFFFFFFFFFFFFFFF AND EQ ISZERO PUSH3 0x174 JUMPI PUSH1 0x40 MLOAD PUSH32 0x8C379A000000000000000000000000000000000000000000000000000000000 DUP2 MSTORE PUSH1 0x4 ADD PUSH3 0x16B SWAP1 PUSH3 0x6E8 JUMP JUMPDEST PUSH1 0x40 MLOAD DUP1 SWAP2 SUB SWAP1 REVERT JUMPDEST PUSH1 0x1 PUSH1 0x0 DUP3 PUSH20 0xFFFFFFFFFFFFFFFFFFFFFFFFFFFFFFFFFFFFFFFF AND PUSH20 0xFFFFFFFFFFFFFFFFFFFFFFFFFFFFFFFFFFFFFFFF AND DUP2 MSTORE PUSH1 0x20 ADD SWAP1 DUP2 MSTORE PUSH1 0x20 ADD PUSH1 0x0 KECCAK256 PUSH1 0x0 SWAP1 SLOAD SWAP1 PUSH2 0x100 EXP SWAP1 DIV PUSH1 0xFF AND ISZERO PUSH3 0x204 JUMPI PUSH1 0x40 MLOAD PUSH32 0x8C379A000000000000000000000000000000000000000000000000000000000 DUP2 MSTORE PUSH1 0x4 ADD PUSH3 0x1FB SWAP1 PUSH3 0x75A JUMP JUMPDEST PUSH1 0x40 MLOAD DUP1 SWAP2 SUB SWAP1 REVERT JUMPDEST PUSH1 0x1 DUP1 PUSH1 0x0 DUP4 PUSH20 0xFFFFFFFFFFFFFFFFFFFFFFFFFFFFFFFFFFFFFFFF AND PUSH20 0xFFFFFFFFFFFFFFFFFFFFFFFFFFFFFFFFFFFFFFFF AND DUP2 MSTORE PUSH1 0x20 ADD SWAP1 DUP2 MSTORE PUSH1 0x20 ADD PUSH1 0x0 KECCAK256 PUSH1 0x0 PUSH2 0x100 EXP DUP2 SLOAD DUP2 PUSH1 0xFF MUL NOT AND SWAP1 DUP4 ISZERO ISZERO MUL OR SWAP1 SSTORE POP PUSH1 0x0 DUP2 SWAP1 DUP1 PUSH1 0x1 DUP2 SLOAD ADD DUP1 DUP3 SSTORE DUP1 SWAP2 POP POP PUSH1 0x1 SWAP1 SUB SWAP1 PUSH1 0x0 MSTORE PUSH1 0x20 PUSH1 0x0 KECCAK256 ADD PUSH1 0x0 SWAP1 SWAP2 SWAP1 SWAP2 SWAP1 SWAP2 PUSH2 0x100 EXP DUP2 SLOAD DUP2 PUSH20 0xFFFFFFFFFFFFFFFFFFFFFFFFFFFFFFFFFFFFFFFF MUL NOT AND SWAP1 DUP4 PUSH20 0xFFFFFFFFFFFFFFFFFFFFFFFFFFFFFFFFFFFFFFFF AND MUL OR SWAP1 SSTORE POP POP DUP1 DUP1 PUSH3 0x2CC SWAP1 PUSH3 0x7AB JUMP JUMPDEST SWAP2 POP POP PUSH3 0xD5 JUMP JUMPDEST POP DUP1 PUSH1 0x2 DUP2 SWAP1 SSTORE POP POP POP PUSH3 0x7F9 JUMP JUMPDEST PUSH1 0x0 PUSH1 0x40 MLOAD SWAP1 POP SWAP1 JUMP JUMPDEST PUSH1 0x0 DUP1 REVERT JUMPDEST PUSH1 0x0 DUP1 REVERT JUMPDEST PUSH1 0x0 DUP1 REVERT JUMPDEST PUSH1 0x0 PUSH1 0x1F NOT PUSH1 0x1F DUP4 ADD AND SWAP1 POP SWAP2 SWAP1 POP JUMP JUMPDEST PUSH32 0x4E487B7100000000000000000000000000000000000000000000000000000000 PUSH1 0x0 MSTORE PUSH1 0x41 PUSH1 0x4 MSTORE PUSH1 0x24 PUSH1 0x0 REVERT JUMPDEST PUSH3 0x349 DUP3 PUSH3 0x2FE JUMP JUMPDEST DUP2 ADD DUP2 DUP2 LT PUSH8 0xFFFFFFFFFFFFFFFF DUP3 GT OR ISZERO PUSH3 0x36B JUMPI PUSH3 0x36A PUSH3 0x30F JUMP JUMPDEST JUMPDEST DUP1 PUSH1 0x40 MSTORE POP POP POP JUMP JUMPDEST PUSH1 0x0 PUSH3 0x380 PUSH3 0x2E5 JUMP JUMPDEST SWAP1 POP PUSH3 0x38E DUP3 DUP3 PUSH3 0x33E JUMP JUMPDEST SWAP2 SWAP1 POP JUMP JUMPDEST PUSH1 0x0 PUSH8 0xFFFFFFFFFFFFFFFF DUP3 GT ISZERO PUSH3 0x3B1 JUMPI PUSH3 0x3B0 PUSH3 0x30F JUMP JUMPDEST JUMPDEST PUSH1 0x20 DUP3 MUL SWAP1 POP PUSH1 0x20 DUP2 ADD SWAP1 POP SWAP2 SWAP1 POP JUMP JUMPDEST PUSH1 0x0 DUP1 REVERT JUMPDEST PUSH1 0x0 PUSH20 0xFFFFFFFFFFFFFFFFFFFFFFFFFFFFFFFFFFFFFFFF DUP3 AND SWAP1 POP SWAP2 SWAP1 POP JUMP JUMPDEST PUSH1 0x0 PUSH3 0x3F4 DUP3 PUSH3 0x3C7 JUMP JUMPDEST SWAP1 POP SWAP2 SWAP1 POP JUMP JUMPDEST PUSH3 0x406 DUP2 PUSH3 0x3E7 JUMP JUMPDEST DUP2 EQ PUSH3 0x412 JUMPI PUSH1 0x0 DUP1 REVERT JUMPDEST POP JUMP JUMPDEST PUSH1 0x0 DUP2 MLOAD SWAP1 POP PUSH3 0x426 DUP2 PUSH3 0x3FB JUMP JUMPDEST SWAP3 SWAP2 POP POP JUMP JUMPDEST PUSH1 0x0 PUSH3 0x443 PUSH3 0x43D DUP5 PUSH3 0x393 JUMP JUMPDEST PUSH3 0x374 JUMP JUMPDEST SWAP1 POP DUP1 DUP4 DUP3 MSTORE PUSH1 0x20 DUP3 ADD SWAP1 POP PUSH1 0x20 DUP5 MUL DUP4 ADD DUP6 DUP2 GT ISZERO PUSH3 0x469 JUMPI PUSH3 0x468 PUSH3 0x3C2 JUMP JUMPDEST JUMPDEST DUP4 JUMPDEST DUP2 DUP2 LT ISZERO PUSH3 0x496 JUMPI DUP1 PUSH3 0x481 DUP9 DUP3 PUSH3 0x415 JUMP JUMPDEST DUP5 MSTORE PUSH1 0x20 DUP5 ADD SWAP4 POP POP PUSH1 0x20 DUP2 ADD SWAP1 POP PUSH3 0x46B JUMP JUMPDEST POP POP POP SWAP4 SWAP3 POP POP POP JUMP JUMPDEST PUSH1 0x0 DUP3 PUSH1 0x1F DUP4 ADD SLT PUSH3 0x4B8 JUMPI PUSH3 0x4B7 PUSH3 0x2F9 JUMP JUMPDEST JUMPDEST DUP2 MLOAD PUSH3 0x4CA DUP5 DUP3 PUSH1 0x20 DUP7 ADD PUSH3 0x42C JUMP JUMPDEST SWAP2 POP POP SWAP3 SWAP2 POP POP JUMP JUMPDEST PUSH1 0x0 DUP2 SWAP1 POP SWAP2 SWAP1 POP JUMP JUMPDEST PUSH3 0x4E8 DUP2 PUSH3 0x4D3 JUMP JUMPDEST DUP2 EQ PUSH3 0x4F4 JUMPI PUSH1 0x0 DUP1 REVERT JUMPDEST POP JUMP JUMPDEST PUSH1 0x0 DUP2 MLOAD SWAP1 POP PUSH3 0x508 DUP2 PUSH3 0x4DD JUMP JUMPDEST SWAP3 SWAP2 POP POP JUMP JUMPDEST PUSH1 0x0 DUP1 PUSH1 0x40 DUP4 DUP6 SUB SLT ISZERO PUSH3 0x528 JUMPI PUSH3 0x527 PUSH3 0x2EF JUMP JUMPDEST JUMPDEST PUSH1 0x0 DUP4 ADD MLOAD PUSH8 0xFFFFFFFFFFFFFFFF DUP2 GT ISZERO PUSH3 0x549 JUMPI PUSH3 0x548 PUSH3 0x2F4 JUMP JUMPDEST JUMPDEST PUSH3 0x557 DUP6 DUP3 DUP7 ADD PUSH3 0x4A0 JUMP JUMPDEST SWAP3 POP POP PUSH1 0x20 PUSH3 0x56A DUP6 DUP3 DUP7 ADD PUSH3 0x4F7 JUMP JUMPDEST SWAP2 POP POP SWAP3 POP SWAP3 SWAP1 POP JUMP JUMPDEST PUSH1 0x0 DUP3 DUP3 MSTORE PUSH1 0x20 DUP3 ADD SWAP1 POP SWAP3 SWAP2 POP POP JUMP JUMPDEST PUSH32 0x4174206C656173742074776F206F776E65727320617265207265717569726564 PUSH1 0x0 DUP3 ADD MSTORE POP JUMP JUMPDEST PUSH1 0x0 PUSH3 0x5BD PUSH1 0x20 DUP4 PUSH3 0x574 JUMP JUMPDEST SWAP2 POP PUSH3 0x5CA DUP3 PUSH3 0x585 JUMP JUMPDEST PUSH1 0x20 DUP3 ADD SWAP1 POP SWAP2 SWAP1 POP JUMP JUMPDEST PUSH1 0x0 PUSH1 0x20 DUP3 ADD SWAP1 POP DUP2 DUP2 SUB PUSH1 0x0 DUP4 ADD MSTORE PUSH3 0x5F0 DUP2 PUSH3 0x5AE JUMP JUMPDEST SWAP1 POP SWAP2 SWAP1 POP JUMP JUMPDEST PUSH32 0x496E76616C6964206E756D626572206F66207369676E65727300000000000000 PUSH1 0x0 DUP3 ADD MSTORE POP JUMP JUMPDEST PUSH1 0x0 PUSH3 0x62F PUSH1 0x19 DUP4 PUSH3 0x574 JUMP JUMPDEST SWAP2 POP PUSH3 0x63C DUP3 PUSH3 0x5F7 JUMP JUMPDEST PUSH1 0x20 DUP3 ADD SWAP1 POP SWAP2 SWAP1 POP JUMP JUMPDEST PUSH1 0x0 PUSH1 0x20 DUP3 ADD SWAP1 POP DUP2 DUP2 SUB PUSH1 0x0 DUP4 ADD MSTORE PUSH3 0x662 DUP2 PUSH3 0x620 JUMP JUMPDEST SWAP1 POP SWAP2 SWAP1 POP JUMP JUMPDEST PUSH32 0x4E487B7100000000000000000000000000000000000000000000000000000000 PUSH1 0x0 MSTORE PUSH1 0x32 PUSH1 0x4 MSTORE PUSH1 0x24 PUSH1 0x0 REVERT JUMPDEST PUSH32 0x4F776E65722063616E6E6F7420626520746865207A65726F2061646472657373 PUSH1 0x0 DUP3 ADD MSTORE POP JUMP JUMPDEST PUSH1 0x0 PUSH3 0x6D0 PUSH1 0x20 DUP4 PUSH3 0x574 JUMP JUMPDEST SWAP2 POP PUSH3 0x6DD DUP3 PUSH3 0x698 JUMP JUMPDEST PUSH1 0x20 DUP3 ADD SWAP1 POP SWAP2 SWAP1 POP JUMP JUMPDEST PUSH1 0x0 PUSH1 0x20 DUP3 ADD SWAP1 POP DUP2 DUP2 SUB PUSH1 0x0 DUP4 ADD MSTORE PUSH3 0x703 DUP2 PUSH3 0x6C1 JUMP JUMPDEST SWAP1 POP SWAP2 SWAP1 POP JUMP JUMPDEST PUSH32 0x4F776E65722063616E6E6F742062652061206475706C69636174650000000000 PUSH1 0x0 DUP3 ADD MSTORE POP JUMP JUMPDEST PUSH1 0x0 PUSH3 0x742 PUSH1 0x1B DUP4 PUSH3 0x574 JUMP JUMPDEST SWAP2 POP PUSH3 0x74F DUP3 PUSH3 0x70A JUMP JUMPDEST PUSH1 0x20 DUP3 ADD SWAP1 POP SWAP2 SWAP1 POP JUMP JUMPDEST PUSH1 0x0 PUSH1 0x20 DUP3 ADD SWAP1 POP DUP2 DUP2 SUB PUSH1 0x0 DUP4 ADD MSTORE PUSH3 0x775 DUP2 PUSH3 0x733 JUMP JUMPDEST SWAP1 POP SWAP2 SWAP1 POP JUMP JUMPDEST PUSH32 0x4E487B7100000000000000000000000000000000000000000000000000000000 PUSH1 0x0 MSTORE PUSH1 0x11 PUSH1 0x4 MSTORE PUSH1 0x24 PUSH1 0x0 REVERT JUMPDEST PUSH1 0x0 PUSH3 0x7B8 DUP3 PUSH3 0x4D3 JUMP JUMPDEST SWAP2 POP PUSH32 0xFFFFFFFFFFFFFFFFFFFFFFFFFFFFFFFFFFFFFFFFFFFFFFFFFFFFFFFFFFFFFFFF DUP3 EQ ISZERO PUSH3 0x7EE JUMPI PUSH3 0x7ED PUSH3 0x77C JUMP JUMPDEST JUMPDEST PUSH1 0x1 DUP3 ADD SWAP1 POP SWAP2 SWAP1 POP JUMP JUMPDEST PUSH2 0x20DF DUP1 PUSH3 0x809 PUSH1 0x0 CODECOPY PUSH1 0x0 RETURN INVALID PUSH1 0x80 PUSH1 0x40 MSTORE PUSH1 0x4 CALLDATASIZE LT PUSH2 0xA0 JUMPI PUSH1 0x0 CALLDATALOAD PUSH1 0xE0 SHR DUP1 PUSH4 0x9ACE38C2 GT PUSH2 0x64 JUMPI DUP1 PUSH4 0x9ACE38C2 EQ PUSH2 0x1F1 JUMPI DUP1 PUSH4 0xB759F954 EQ PUSH2 0x232 JUMPI DUP1 PUSH4 0xB848DE35 EQ PUSH2 0x25B JUMPI DUP1 PUSH4 0xB8ADAA11 EQ PUSH2 0x298 JUMPI DUP1 PUSH4 0xDC8452CD EQ PUSH2 0x2C1 JUMPI DUP1 PUSH4 0xFE0D94C1 EQ PUSH2 0x2EC JUMPI PUSH2 0xF5 JUMP JUMPDEST DUP1 PUSH4 0x25E7C27 EQ PUSH2 0xFA JUMPI DUP1 PUSH4 0x203DD666 EQ PUSH2 0x137 JUMPI DUP1 PUSH4 0x20C5429B EQ PUSH2 0x160 JUMPI DUP1 PUSH4 0x2F54BF6E EQ PUSH2 0x189 JUMPI DUP1 PUSH4 0x83920E90 EQ PUSH2 0x1C6 JUMPI PUSH2 0xF5 JUMP JUMPDEST CALLDATASIZE PUSH2 0xF5 JUMPI CALLER PUSH20 0xFFFFFFFFFFFFFFFFFFFFFFFFFFFFFFFFFFFFFFFF AND PUSH32 0xE1FFFCC4923D04B559F4D29A8BFC6CDA04EB5B0D3C460751C2402C5C5CC9109C CALLVALUE PUSH1 0x40 MLOAD PUSH2 0xEB SWAP2 SWAP1 PUSH2 0x156E JUMP JUMPDEST PUSH1 0x40 MLOAD DUP1 SWAP2 SUB SWAP1 LOG2 STOP JUMPDEST PUSH1 0x0 DUP1 REVERT JUMPDEST CALLVALUE DUP1 ISZERO PUSH2 0x106 JUMPI PUSH1 0x0 DUP1 REVERT JUMPDEST POP PUSH2 0x121 PUSH1 0x4 DUP1 CALLDATASIZE SUB DUP2 ADD SWAP1 PUSH2 0x11C SWAP2 SWAP1 PUSH2 0x15BA JUMP JUMPDEST PUSH2 0x315 JUMP JUMPDEST PUSH1 0x40 MLOAD PUSH2 0x12E SWAP2 SWAP1 PUSH2 0x1628 JUMP JUMPDEST PUSH1 0x40 MLOAD DUP1 SWAP2 SUB SWAP1 RETURN JUMPDEST CALLVALUE DUP1 ISZERO PUSH2 0x143 JUMPI PUSH1 0x0 DUP1 REVERT JUMPDEST POP PUSH2 0x15E PUSH1 0x4 DUP1 CALLDATASIZE SUB DUP2 ADD SWAP1 PUSH2 0x159 SWAP2 SWAP1 PUSH2 0x166F JUMP JUMPDEST PUSH2 0x354 JUMP JUMPDEST STOP JUMPDEST CALLVALUE DUP1 ISZERO PUSH2 0x16C JUMPI PUSH1 0x0 DUP1 REVERT JUMPDEST POP PUSH2 0x187 PUSH1 0x4 DUP1 CALLDATASIZE SUB DUP2 ADD SWAP1 PUSH2 0x182 SWAP2 SWAP1 PUSH2 0x15BA JUMP JUMPDEST PUSH2 0x55B JUMP JUMPDEST STOP JUMPDEST CALLVALUE DUP1 ISZERO PUSH2 0x195 JUMPI PUSH1 0x0 DUP1 REVERT JUMPDEST POP PUSH2 0x1B0 PUSH1 0x4 DUP1 CALLDATASIZE SUB DUP2 ADD SWAP1 PUSH2 0x1AB SWAP2 SWAP1 PUSH2 0x16AF JUMP JUMPDEST PUSH2 0x84F JUMP JUMPDEST PUSH1 0x40 MLOAD PUSH2 0x1BD SWAP2 SWAP1 PUSH2 0x16F7 JUMP JUMPDEST PUSH1 0x40 MLOAD DUP1 SWAP2 SUB SWAP1 RETURN JUMPDEST CALLVALUE DUP1 ISZERO PUSH2 0x1D2 JUMPI PUSH1 0x0 DUP1 REVERT JUMPDEST POP PUSH2 0x1DB PUSH2 0x86F JUMP JUMPDEST PUSH1 0x40 MLOAD PUSH2 0x1E8 SWAP2 SWAP1 PUSH2 0x1978 JUMP JUMPDEST PUSH1 0x40 MLOAD DUP1 SWAP2 SUB SWAP1 RETURN JUMPDEST CALLVALUE DUP1 ISZERO PUSH2 0x1FD JUMPI PUSH1 0x0 DUP1 REVERT JUMPDEST POP PUSH2 0x218 PUSH1 0x4 DUP1 CALLDATASIZE SUB DUP2 ADD SWAP1 PUSH2 0x213 SWAP2 SWAP1 PUSH2 0x15BA JUMP JUMPDEST PUSH2 0xA05 JUMP JUMPDEST PUSH1 0x40 MLOAD PUSH2 0x229 SWAP6 SWAP5 SWAP4 SWAP3 SWAP2 SWAP1 PUSH2 0x19F3 JUMP JUMPDEST PUSH1 0x40 MLOAD DUP1 SWAP2 SUB SWAP1 RETURN JUMPDEST CALLVALUE DUP1 ISZERO PUSH2 0x23E JUMPI PUSH1 0x0 DUP1 REVERT JUMPDEST POP PUSH2 0x259 PUSH1 0x4 DUP1 CALLDATASIZE SUB DUP2 ADD SWAP1 PUSH2 0x254 SWAP2 SWAP1 PUSH2 0x15BA JUMP JUMPDEST PUSH2 0xB00 JUMP JUMPDEST STOP JUMPDEST CALLVALUE DUP1 ISZERO PUSH2 0x267 JUMPI PUSH1 0x0 DUP1 REVERT JUMPDEST POP PUSH2 0x282 PUSH1 0x4 DUP1 CALLDATASIZE SUB DUP2 ADD SWAP1 PUSH2 0x27D SWAP2 SWAP1 PUSH2 0x1A4D JUMP JUMPDEST PUSH2 0xDF7 JUMP JUMPDEST PUSH1 0x40 MLOAD PUSH2 0x28F SWAP2 SWAP1 PUSH2 0x1AD5 JUMP JUMPDEST PUSH1 0x40 MLOAD DUP1 SWAP2 SUB SWAP1 RETURN JUMPDEST CALLVALUE DUP1 ISZERO PUSH2 0x2A4 JUMPI PUSH1 0x0 DUP1 REVERT JUMPDEST POP PUSH2 0x2BF PUSH1 0x4 DUP1 CALLDATASIZE SUB DUP2 ADD SWAP1 PUSH2 0x2BA SWAP2 SWAP1 PUSH2 0x15BA JUMP JUMPDEST PUSH2 0xE26 JUMP JUMPDEST STOP JUMPDEST CALLVALUE DUP1 ISZERO PUSH2 0x2CD JUMPI PUSH1 0x0 DUP1 REVERT JUMPDEST POP PUSH2 0x2D6 PUSH2 0x111C JUMP JUMPDEST PUSH1 0x40 MLOAD PUSH2 0x2E3 SWAP2 SWAP1 PUSH2 0x156E JUMP JUMPDEST PUSH1 0x40 MLOAD DUP1 SWAP2 SUB SWAP1 RETURN JUMPDEST CALLVALUE DUP1 ISZERO PUSH2 0x2F8 JUMPI PUSH1 0x0 DUP1 REVERT JUMPDEST POP PUSH2 0x313 PUSH1 0x4 DUP1 CALLDATASIZE SUB DUP2 ADD SWAP1 PUSH2 0x30E SWAP2 SWAP1 PUSH2 0x15BA JUMP JUMPDEST PUSH2 0x1122 JUMP JUMPDEST STOP JUMPDEST PUSH1 0x0 DUP2 DUP2 SLOAD DUP2 LT PUSH2 0x325 JUMPI PUSH1 0x0 DUP1 REVERT JUMPDEST SWAP1 PUSH1 0x0 MSTORE PUSH1 0x20 PUSH1 0x0 KECCAK256 ADD PUSH1 0x0 SWAP2 POP SLOAD SWAP1 PUSH2 0x100 EXP SWAP1 DIV PUSH20 0xFFFFFFFFFFFFFFFFFFFFFFFFFFFFFFFFFFFFFFFF AND DUP2 JUMP JUMPDEST PUSH1 0x1 PUSH1 0x0 CALLER PUSH20 0xFFFFFFFFFFFFFFFFFFFFFFFFFFFFFFFFFFFFFFFF AND PUSH20 0xFFFFFFFFFFFFFFFFFFFFFFFFFFFFFFFFFFFFFFFF AND DUP2 MSTORE PUSH1 0x20 ADD SWAP1 DUP2 MSTORE PUSH1 0x20 ADD PUSH1 0x0 KECCAK256 PUSH1 0x0 SWAP1 SLOAD SWAP1 PUSH2 0x100 EXP SWAP1 DIV PUSH1 0xFF AND PUSH2 0x3E0 JUMPI PUSH1 0x40 MLOAD PUSH32 0x8C379A000000000000000000000000000000000000000000000000000000000 DUP2 MSTORE PUSH1 0x4 ADD PUSH2 0x3D7 SWAP1 PUSH2 0x1B4D JUMP JUMPDEST PUSH1 0x40 MLOAD DUP1 SWAP2 SUB SWAP1 REVERT JUMPDEST PUSH1 0x3 PUSH1 0x40 MLOAD DUP1 PUSH1 0xA0 ADD PUSH1 0x40 MSTORE DUP1 PUSH1 0x3 DUP1 SLOAD SWAP1 POP DUP2 MSTORE PUSH1 0x20 ADD DUP5 PUSH20 0xFFFFFFFFFFFFFFFFFFFFFFFFFFFFFFFFFFFFFFFF AND DUP2 MSTORE PUSH1 0x20 ADD DUP4 DUP2 MSTORE PUSH1 0x20 ADD PUSH1 0x40 MLOAD DUP1 PUSH1 0x20 ADD PUSH1 0x40 MSTORE DUP1 PUSH1 0x0 DUP2 MSTORE POP DUP2 MSTORE PUSH1 0x20 ADD PUSH1 0x0 PUSH1 0x2 DUP2 GT ISZERO PUSH2 0x443 JUMPI PUSH2 0x442 PUSH2 0x17F5 JUMP JUMPDEST JUMPDEST DUP2 MSTORE POP SWAP1 DUP1 PUSH1 0x1 DUP2 SLOAD ADD DUP1 DUP3 SSTORE DUP1 SWAP2 POP POP PUSH1 0x1 SWAP1 SUB SWAP1 PUSH1 0x0 MSTORE PUSH1 0x20 PUSH1 0x0 KECCAK256 SWAP1 PUSH1 0x5 MUL ADD PUSH1 0x0 SWAP1 SWAP2 SWAP1 SWAP2 SWAP1 SWAP2 POP PUSH1 0x0 DUP3 ADD MLOAD DUP2 PUSH1 0x0 ADD SSTORE PUSH1 0x20 DUP3 ADD MLOAD DUP2 PUSH1 0x1 ADD PUSH1 0x0 PUSH2 0x100 EXP DUP2 SLOAD DUP2 PUSH20 0xFFFFFFFFFFFFFFFFFFFFFFFFFFFFFFFFFFFFFFFF MUL NOT AND SWAP1 DUP4 PUSH20 0xFFFFFFFFFFFFFFFFFFFFFFFFFFFFFFFFFFFFFFFF AND MUL OR SWAP1 SSTORE POP PUSH1 0x40 DUP3 ADD MLOAD DUP2 PUSH1 0x2 ADD SSTORE PUSH1 0x60 DUP3 ADD MLOAD DUP2 PUSH1 0x3 ADD SWAP1 DUP1 MLOAD SWAP1 PUSH1 0x20 ADD SWAP1 PUSH2 0x4E6 SWAP3 SWAP2 SWAP1 PUSH2 0x14B2 JUMP JUMPDEST POP PUSH1 0x80 DUP3 ADD MLOAD DUP2 PUSH1 0x4 ADD PUSH1 0x0 PUSH2 0x100 EXP DUP2 SLOAD DUP2 PUSH1 0xFF MUL NOT AND SWAP1 DUP4 PUSH1 0x2 DUP2 GT ISZERO PUSH2 0x512 JUMPI PUSH2 0x511 PUSH2 0x17F5 JUMP JUMPDEST JUMPDEST MUL OR SWAP1 SSTORE POP POP POP PUSH1 0x1 PUSH1 0x3 DUP1 SLOAD SWAP1 POP PUSH2 0x52B SWAP2 SWAP1 PUSH2 0x1B9C JUMP JUMPDEST PUSH32 0x8324B3D745B914E3ABD4FFBFEAD91E3B78391A98C173202129215AB933ADFBE PUSH1 0x40 MLOAD PUSH1 0x40 MLOAD DUP1 SWAP2 SUB SWAP1 LOG2 POP POP JUMP JUMPDEST PUSH1 0x1 PUSH1 0x0 CALLER PUSH20 0xFFFFFFFFFFFFFFFFFFFFFFFFFFFFFFFFFFFFFFFF AND PUSH20 0xFFFFFFFFFFFFFFFFFFFFFFFFFFFFFFFFFFFFFFFF AND DUP2 MSTORE PUSH1 0x20 ADD SWAP1 DUP2 MSTORE PUSH1 0x20 ADD PUSH1 0x0 KECCAK256 PUSH1 0x0 SWAP1 SLOAD SWAP1 PUSH2 0x100 EXP SWAP1 DIV PUSH1 0xFF AND PUSH2 0x5E7 JUMPI PUSH1 0x40 MLOAD PUSH32 0x8C379A000000000000000000000000000000000000000000000000000000000 DUP2 MSTORE PUSH1 0x4 ADD PUSH2 0x5DE SWAP1 PUSH2 0x1B4D JUMP JUMPDEST PUSH1 0x40 MLOAD DUP1 SWAP2 SUB SWAP1 REVERT JUMPDEST DUP1 PUSH1 0x3 DUP1 SLOAD SWAP1 POP DUP2 LT PUSH2 0x62F JUMPI PUSH1 0x40 MLOAD PUSH32 0x8C379A000000000000000000000000000000000000000000000000000000000 DUP2 MSTORE PUSH1 0x4 ADD PUSH2 0x626 SWAP1 PUSH2 0x1C1C JUMP JUMPDEST PUSH1 0x40 MLOAD DUP1 SWAP2 SUB SWAP1 REVERT JUMPDEST DUP2 PUSH1 0x0 PUSH1 0x2 DUP2 GT ISZERO PUSH2 0x644 JUMPI PUSH2 0x643 PUSH2 0x17F5 JUMP JUMPDEST JUMPDEST PUSH1 0x3 DUP3 DUP2 SLOAD DUP2 LT PUSH2 0x658 JUMPI PUSH2 0x657 PUSH2 0x1C3C JUMP JUMPDEST JUMPDEST SWAP1 PUSH1 0x0 MSTORE PUSH1 0x20 PUSH1 0x0 KECCAK256 SWAP1 PUSH1 0x5 MUL ADD PUSH1 0x4 ADD PUSH1 0x0 SWAP1 SLOAD SWAP1 PUSH2 0x100 EXP SWAP1 DIV PUSH1 0xFF AND PUSH1 0x2 DUP2 GT ISZERO PUSH2 0x689 JUMPI PUSH2 0x688 PUSH2 0x17F5 JUMP JUMPDEST JUMPDEST EQ PUSH2 0x6C9 JUMPI PUSH1 0x40 MLOAD PUSH32 0x8C379A000000000000000000000000000000000000000000000000000000000 DUP2 MSTORE PUSH1 0x4 ADD PUSH2 0x6C0 SWAP1 PUSH2 0x1CB7 JUMP JUMPDEST PUSH1 0x40 MLOAD DUP1 SWAP2 SUB SWAP1 REVERT JUMPDEST PUSH1 0x1 PUSH1 0x2 DUP2 GT ISZERO PUSH2 0x6DD JUMPI PUSH2 0x6DC PUSH2 0x17F5 JUMP JUMPDEST JUMPDEST PUSH1 0x4 PUSH1 0x0 DUP6 DUP2 MSTORE PUSH1 0x20 ADD SWAP1 DUP2 MSTORE PUSH1 0x20 ADD PUSH1 0x0 KECCAK256 PUSH1 0x0 CALLER PUSH20 0xFFFFFFFFFFFFFFFFFFFFFFFFFFFFFFFFFFFFFFFF AND PUSH20 0xFFFFFFFFFFFFFFFFFFFFFFFFFFFFFFFFFFFFFFFF AND DUP2 MSTORE PUSH1 0x20 ADD SWAP1 DUP2 MSTORE PUSH1 0x20 ADD PUSH1 0x0 KECCAK256 PUSH1 0x0 SWAP1 SLOAD SWAP1 PUSH2 0x100 EXP SWAP1 DIV PUSH1 0xFF AND PUSH1 0x2 DUP2 GT ISZERO PUSH2 0x74D JUMPI PUSH2 0x74C PUSH2 0x17F5 JUMP JUMPDEST JUMPDEST EQ PUSH2 0x78D JUMPI PUSH1 0x40 MLOAD PUSH32 0x8C379A000000000000000000000000000000000000000000000000000000000 DUP2 MSTORE PUSH1 0x4 ADD PUSH2 0x784 SWAP1 PUSH2 0x1D23 JUMP JUMPDEST PUSH1 0x40 MLOAD DUP1 SWAP2 SUB SWAP1 REVERT JUMPDEST PUSH1 0x0 PUSH1 0x4 PUSH1 0x0 DUP6 DUP2 MSTORE PUSH1 0x20 ADD SWAP1 DUP2 MSTORE PUSH1 0x20 ADD PUSH1 0x0 KECCAK256 PUSH1 0x0 CALLER PUSH20 0xFFFFFFFFFFFFFFFFFFFFFFFFFFFFFFFFFFFFFFFF AND PUSH20 0xFFFFFFFFFFFFFFFFFFFFFFFFFFFFFFFFFFFFFFFF AND DUP2 MSTORE PUSH1 0x20 ADD SWAP1 DUP2 MSTORE PUSH1 0x20 ADD PUSH1 0x0 KECCAK256 PUSH1 0x0 PUSH2 0x100 EXP DUP2 SLOAD DUP2 PUSH1 0xFF MUL NOT AND SWAP1 DUP4 PUSH1 0x2 DUP2 GT ISZERO PUSH2 0x801 JUMPI PUSH2 0x800 PUSH2 0x17F5 JUMP JUMPDEST JUMPDEST MUL OR SWAP1 SSTORE POP DUP3 CALLER PUSH20 0xFFFFFFFFFFFFFFFFFFFFFFFFFFFFFFFFFFFFFFFF AND PUSH32 0xEC9AB91322523C899EDE7830EC9BFC992B5981CDCC27B91162FB23DE5791117B PUSH1 0x40 MLOAD PUSH1 0x40 MLOAD DUP1 SWAP2 SUB SWAP1 LOG3 POP POP POP JUMP JUMPDEST PUSH1 0x1 PUSH1 0x20 MSTORE DUP1 PUSH1 0x0 MSTORE PUSH1 0x40 PUSH1 0x0 KECCAK256 PUSH1 0x0 SWAP2 POP SLOAD SWAP1 PUSH2 0x100 EXP SWAP1 DIV PUSH1 0xFF AND DUP2 JUMP JUMPDEST PUSH1 0x60 PUSH1 0x3 DUP1 SLOAD DUP1 PUSH1 0x20 MUL PUSH1 0x20 ADD PUSH1 0x40 MLOAD SWAP1 DUP2 ADD PUSH1 0x40 MSTORE DUP1 SWAP3 SWAP2 SWAP1 DUP2 DUP2 MSTORE PUSH1 0x20 ADD PUSH1 0x0 SWAP1 JUMPDEST DUP3 DUP3 LT ISZERO PUSH2 0x9FC JUMPI DUP4 DUP3 SWAP1 PUSH1 0x0 MSTORE PUSH1 0x20 PUSH1 0x0 KECCAK256 SWAP1 PUSH1 0x5 MUL ADD PUSH1 0x40 MLOAD DUP1 PUSH1 0xA0 ADD PUSH1 0x40 MSTORE SWAP1 DUP2 PUSH1 0x0 DUP3 ADD SLOAD DUP2 MSTORE PUSH1 0x20 ADD PUSH1 0x1 DUP3 ADD PUSH1 0x0 SWAP1 SLOAD SWAP1 PUSH2 0x100 EXP SWAP1 DIV PUSH20 0xFFFFFFFFFFFFFFFFFFFFFFFFFFFFFFFFFFFFFFFF AND PUSH20 0xFFFFFFFFFFFFFFFFFFFFFFFFFFFFFFFFFFFFFFFF AND PUSH20 0xFFFFFFFFFFFFFFFFFFFFFFFFFFFFFFFFFFFFFFFF AND DUP2 MSTORE PUSH1 0x20 ADD PUSH1 0x2 DUP3 ADD SLOAD DUP2 MSTORE PUSH1 0x20 ADD PUSH1 0x3 DUP3 ADD DUP1 SLOAD PUSH2 0x930 SWAP1 PUSH2 0x1D72 JUMP JUMPDEST DUP1 PUSH1 0x1F ADD PUSH1 0x20 DUP1 SWAP2 DIV MUL PUSH1 0x20 ADD PUSH1 0x40 MLOAD SWAP1 DUP2 ADD PUSH1 0x40 MSTORE DUP1 SWAP3 SWAP2 SWAP1 DUP2 DUP2 MSTORE PUSH1 0x20 ADD DUP3 DUP1 SLOAD PUSH2 0x95C SWAP1 PUSH2 0x1D72 JUMP JUMPDEST DUP1 ISZERO PUSH2 0x9A9 JUMPI DUP1 PUSH1 0x1F LT PUSH2 0x97E JUMPI PUSH2 0x100 DUP1 DUP4 SLOAD DIV MUL DUP4 MSTORE SWAP2 PUSH1 0x20 ADD SWAP2 PUSH2 0x9A9 JUMP JUMPDEST DUP3 ADD SWAP2 SWAP1 PUSH1 0x0 MSTORE PUSH1 0x20 PUSH1 0x0 KECCAK256 SWAP1 JUMPDEST DUP2 SLOAD DUP2 MSTORE SWAP1 PUSH1 0x1 ADD SWAP1 PUSH1 0x20 ADD DUP1 DUP4 GT PUSH2 0x98C JUMPI DUP3 SWAP1 SUB PUSH1 0x1F AND DUP3 ADD SWAP2 JUMPDEST POP POP POP POP POP DUP2 MSTORE PUSH1 0x20 ADD PUSH1 0x4 DUP3 ADD PUSH1 0x0 SWAP1 SLOAD SWAP1 PUSH2 0x100 EXP SWAP1 DIV PUSH1 0xFF AND PUSH1 0x2 DUP2 GT ISZERO PUSH2 0x9D7 JUMPI PUSH2 0x9D6 PUSH2 0x17F5 JUMP JUMPDEST JUMPDEST PUSH1 0x2 DUP2 GT ISZERO PUSH2 0x9E9 JUMPI PUSH2 0x9E8 PUSH2 0x17F5 JUMP JUMPDEST JUMPDEST DUP2 MSTORE POP POP DUP2 MSTORE PUSH1 0x20 ADD SWAP1 PUSH1 0x1 ADD SWAP1 PUSH2 0x893 JUMP JUMPDEST POP POP POP POP SWAP1 POP SWAP1 JUMP JUMPDEST PUSH1 0x3 DUP2 DUP2 SLOAD DUP2 LT PUSH2 0xA15 JUMPI PUSH1 0x0 DUP1 REVERT JUMPDEST SWAP1 PUSH1 0x0 MSTORE PUSH1 0x20 PUSH1 0x0 KECCAK256 SWAP1 PUSH1 0x5 MUL ADD PUSH1 0x0 SWAP2 POP SWAP1 POP DUP1 PUSH1 0x0 ADD SLOAD SWAP1 DUP1 PUSH1 0x1 ADD PUSH1 0x0 SWAP1 SLOAD SWAP1 PUSH2 0x100 EXP SWAP1 DIV PUSH20 0xFFFFFFFFFFFFFFFFFFFFFFFFFFFFFFFFFFFFFFFF AND SWAP1 DUP1 PUSH1 0x2 ADD SLOAD SWAP1 DUP1 PUSH1 0x3 ADD DUP1 SLOAD PUSH2 0xA6A SWAP1 PUSH2 0x1D72 JUMP JUMPDEST DUP1 PUSH1 0x1F ADD PUSH1 0x20 DUP1 SWAP2 DIV MUL PUSH1 0x20 ADD PUSH1 0x40 MLOAD SWAP1 DUP2 ADD PUSH1 0x40 MSTORE DUP1 SWAP3 SWAP2 SWAP1 DUP2 DUP2 MSTORE PUSH1 0x20 ADD DUP3 DUP1 SLOAD PUSH2 0xA96 SWAP1 PUSH2 0x1D72 JUMP JUMPDEST DUP1 ISZERO PUSH2 0xAE3 JUMPI DUP1 PUSH1 0x1F LT PUSH2 0xAB8 JUMPI PUSH2 0x100 DUP1 DUP4 SLOAD DIV MUL DUP4 MSTORE SWAP2 PUSH1 0x20 ADD SWAP2 PUSH2 0xAE3 JUMP JUMPDEST DUP3 ADD SWAP2 SWAP1 PUSH1 0x0 MSTORE PUSH1 0x20 PUSH1 0x0 KECCAK256 SWAP1 JUMPDEST DUP2 SLOAD DUP2 MSTORE SWAP1 PUSH1 0x1 ADD SWAP1 PUSH1 0x20 ADD DUP1 DUP4 GT PUSH2 0xAC6 JUMPI DUP3 SWAP1 SUB PUSH1 0x1F AND DUP3 ADD SWAP2 JUMPDEST POP POP POP POP POP SWAP1 DUP1 PUSH1 0x4 ADD PUSH1 0x0 SWAP1 SLOAD SWAP1 PUSH2 0x100 EXP SWAP1 DIV PUSH1 0xFF AND SWAP1 POP DUP6 JUMP JUMPDEST PUSH1 0x1 PUSH1 0x0 CALLER PUSH20 0xFFFFFFFFFFFFFFFFFFFFFFFFFFFFFFFFFFFFFFFF AND PUSH20 0xFFFFFFFFFFFFFFFFFFFFFFFFFFFFFFFFFFFFFFFF AND DUP2 MSTORE PUSH1 0x20 ADD SWAP1 DUP2 MSTORE PUSH1 0x20 ADD PUSH1 0x0 KECCAK256 PUSH1 0x0 SWAP1 SLOAD SWAP1 PUSH2 0x100 EXP SWAP1 DIV PUSH1 0xFF AND PUSH2 0xB8C JUMPI PUSH1 0x40 MLOAD PUSH32 0x8C379A000000000000000000000000000000000000000000000000000000000 DUP2 MSTORE PUSH1 0x4 ADD PUSH2 0xB83 SWAP1 PUSH2 0x1B4D JUMP JUMPDEST PUSH1 0x40 MLOAD DUP1 SWAP2 SUB SWAP1 REVERT JUMPDEST DUP1 PUSH1 0x3 DUP1 SLOAD SWAP1 POP DUP2 LT PUSH2 0xBD4 JUMPI PUSH1 0x40 MLOAD PUSH32 0x8C379A000000000000000000000000000000000000000000000000000000000 DUP2 MSTORE PUSH1 0x4 ADD PUSH2 0xBCB SWAP1 PUSH2 0x1C1C JUMP JUMPDEST PUSH1 0x40 MLOAD DUP1 SWAP2 SUB SWAP1 REVERT JUMPDEST DUP2 PUSH1 0x1 PUSH1 0x2 DUP2 GT ISZERO PUSH2 0xBE9 JUMPI PUSH2 0xBE8 PUSH2 0x17F5 JUMP JUMPDEST JUMPDEST PUSH1 0x4 PUSH1 0x0 DUP4 DUP2 MSTORE PUSH1 0x20 ADD SWAP1 DUP2 MSTORE PUSH1 0x20 ADD PUSH1 0x0 KECCAK256 PUSH1 0x0 CALLER PUSH20 0xFFFFFFFFFFFFFFFFFFFFFFFFFFFFFFFFFFFFFFFF AND PUSH20 0xFFFFFFFFFFFFFFFFFFFFFFFFFFFFFFFFFFFFFFFF AND DUP2 MSTORE PUSH1 0x20 ADD SWAP1 DUP2 MSTORE PUSH1 0x20 ADD PUSH1 0x0 KECCAK256 PUSH1 0x0 SWAP1 SLOAD SWAP1 PUSH2 0x100 EXP SWAP1 DIV PUSH1 0xFF AND PUSH1 0x2 DUP2 GT ISZERO PUSH2 0xC59 JUMPI PUSH2 0xC58 PUSH2 0x17F5 JUMP JUMPDEST JUMPDEST EQ ISZERO PUSH2 0xC9A JUMPI PUSH1 0x40 MLOAD PUSH32 0x8C379A000000000000000000000000000000000000000000000000000000000 DUP2 MSTORE PUSH1 0x4 ADD PUSH2 0xC91 SWAP1 PUSH2 0x1DF0 JUMP JUMPDEST PUSH1 0x40 MLOAD DUP1 SWAP2 SUB SWAP1 REVERT JUMPDEST DUP3 PUSH1 0x0 PUSH1 0x2 DUP2 GT ISZERO PUSH2 0xCAF JUMPI PUSH2 0xCAE PUSH2 0x17F5 JUMP JUMPDEST JUMPDEST PUSH1 0x3 DUP3 DUP2 SLOAD DUP2 LT PUSH2 0xCC3 JUMPI PUSH2 0xCC2 PUSH2 0x1C3C JUMP JUMPDEST JUMPDEST SWAP1 PUSH1 0x0 MSTORE PUSH1 0x20 PUSH1 0x0 KECCAK256 SWAP1 PUSH1 0x5 MUL ADD PUSH1 0x4 ADD PUSH1 0x0 SWAP1 SLOAD SWAP1 PUSH2 0x100 EXP SWAP1 DIV PUSH1 0xFF AND PUSH1 0x2 DUP2 GT ISZERO PUSH2 0xCF4 JUMPI PUSH2 0xCF3 PUSH2 0x17F5 JUMP JUMPDEST JUMPDEST EQ PUSH2 0xD34 JUMPI PUSH1 0x40 MLOAD PUSH32 0x8C379A000000000000000000000000000000000000000000000000000000000 DUP2 MSTORE PUSH1 0x4 ADD PUSH2 0xD2B SWAP1 PUSH2 0x1CB7 JUMP JUMPDEST PUSH1 0x40 MLOAD DUP1 SWAP2 SUB SWAP1 REVERT JUMPDEST PUSH1 0x1 PUSH1 0x4 PUSH1 0x0 DUP7 DUP2 MSTORE PUSH1 0x20 ADD SWAP1 DUP2 MSTORE PUSH1 0x20 ADD PUSH1 0x0 KECCAK256 PUSH1 0x0 CALLER PUSH20 0xFFFFFFFFFFFFFFFFFFFFFFFFFFFFFFFFFFFFFFFF AND PUSH20 0xFFFFFFFFFFFFFFFFFFFFFFFFFFFFFFFFFFFFFFFF AND DUP2 MSTORE PUSH1 0x20 ADD SWAP1 DUP2 MSTORE PUSH1 0x20 ADD PUSH1 0x0 KECCAK256 PUSH1 0x0 PUSH2 0x100 EXP DUP2 SLOAD DUP2 PUSH1 0xFF MUL NOT AND SWAP1 DUP4 PUSH1 0x2 DUP2 GT ISZERO PUSH2 0xDA8 JUMPI PUSH2 0xDA7 PUSH2 0x17F5 JUMP JUMPDEST JUMPDEST MUL OR SWAP1 SSTORE POP DUP4 CALLER PUSH20 0xFFFFFFFFFFFFFFFFFFFFFFFFFFFFFFFFFFFFFFFF AND PUSH32 0x90EC57F18FA7B15C6B8D5E4D1DEB90796C74B2FF23D4D0CECAD0CB42A96B3128 PUSH1 0x40 MLOAD PUSH1 0x40 MLOAD DUP1 SWAP2 SUB SWAP1 LOG3 POP POP POP POP JUMP JUMPDEST PUSH1 0x4 PUSH1 0x20 MSTORE DUP2 PUSH1 0x0 MSTORE PUSH1 0x40 PUSH1 0x0 KECCAK256 PUSH1 0x20 MSTORE DUP1 PUSH1 0x0 MSTORE PUSH1 0x40 PUSH1 0x0 KECCAK256 PUSH1 0x0 SWAP2 POP SWAP2 POP SWAP1 SLOAD SWAP1 PUSH2 0x100 EXP SWAP1 DIV PUSH1 0xFF AND DUP2 JUMP JUMPDEST PUSH1 0x1 PUSH1 0x0 CALLER PUSH20 0xFFFFFFFFFFFFFFFFFFFFFFFFFFFFFFFFFFFFFFFF AND PUSH20 0xFFFFFFFFFFFFFFFFFFFFFFFFFFFFFFFFFFFFFFFF AND DUP2 MSTORE PUSH1 0x20 ADD SWAP1 DUP2 MSTORE PUSH1 0x20 ADD PUSH1 0x0 KECCAK256 PUSH1 0x0 SWAP1 SLOAD SWAP1 PUSH2 0x100 EXP SWAP1 DIV PUSH1 0xFF AND PUSH2 0xEB2 JUMPI PUSH1 0x40 MLOAD PUSH32 0x8C379A000000000000000000000000000000000000000000000000000000000 DUP2 MSTORE PUSH1 0x4 ADD PUSH2 0xEA9 SWAP1 PUSH2 0x1B4D JUMP JUMPDEST PUSH1 0x40 MLOAD DUP1 SWAP2 SUB SWAP1 REVERT JUMPDEST DUP1 PUSH1 0x3 DUP1 SLOAD SWAP1 POP DUP2 LT PUSH2 0xEFA JUMPI PUSH1 0x40 MLOAD PUSH32 0x8C379A000000000000000000000000000000000000000000000000000000000 DUP2 MSTORE PUSH1 0x4 ADD PUSH2 0xEF1 SWAP1 PUSH2 0x1C1C JUMP JUMPDEST PUSH1 0x40 MLOAD DUP1 SWAP2 SUB SWAP1 REVERT JUMPDEST DUP2 PUSH1 0x2 DUP1 DUP2 GT ISZERO PUSH2 0xF0E JUMPI PUSH2 0xF0D PUSH2 0x17F5 JUMP JUMPDEST JUMPDEST PUSH1 0x4 PUSH1 0x0 DUP4 DUP2 MSTORE PUSH1 0x20 ADD SWAP1 DUP2 MSTORE PUSH1 0x20 ADD PUSH1 0x0 KECCAK256 PUSH1 0x0 CALLER PUSH20 0xFFFFFFFFFFFFFFFFFFFFFFFFFFFFFFFFFFFFFFFF AND PUSH20 0xFFFFFFFFFFFFFFFFFFFFFFFFFFFFFFFFFFFFFFFF AND DUP2 MSTORE PUSH1 0x20 ADD SWAP1 DUP2 MSTORE PUSH1 0x20 ADD PUSH1 0x0 KECCAK256 PUSH1 0x0 SWAP1 SLOAD SWAP1 PUSH2 0x100 EXP SWAP1 DIV PUSH1 0xFF AND PUSH1 0x2 DUP2 GT ISZERO PUSH2 0xF7E JUMPI PUSH2 0xF7D PUSH2 0x17F5 JUMP JUMPDEST JUMPDEST EQ ISZERO PUSH2 0xFBF JUMPI PUSH1 0x40 MLOAD PUSH32 0x8C379A000000000000000000000000000000000000000000000000000000000 DUP2 MSTORE PUSH1 0x4 ADD PUSH2 0xFB6 SWAP1 PUSH2 0x1E5C JUMP JUMPDEST PUSH1 0x40 MLOAD DUP1 SWAP2 SUB SWAP1 REVERT JUMPDEST DUP3 PUSH1 0x0 PUSH1 0x2 DUP2 GT ISZERO PUSH2 0xFD4 JUMPI PUSH2 0xFD3 PUSH2 0x17F5 JUMP JUMPDEST JUMPDEST PUSH1 0x3 DUP3 DUP2 SLOAD DUP2 LT PUSH2 0xFE8 JUMPI PUSH2 0xFE7 PUSH2 0x1C3C JUMP JUMPDEST JUMPDEST SWAP1 PUSH1 0x0 MSTORE PUSH1 0x20 PUSH1 0x0 KECCAK256 SWAP1 PUSH1 0x5 MUL ADD PUSH1 0x4 ADD PUSH1 0x0 SWAP1 SLOAD SWAP1 PUSH2 0x100 EXP SWAP1 DIV PUSH1 0xFF AND PUSH1 0x2 DUP2 GT ISZERO PUSH2 0x1019 JUMPI PUSH2 0x1018 PUSH2 0x17F5 JUMP JUMPDEST JUMPDEST EQ PUSH2 0x1059 JUMPI PUSH1 0x40 MLOAD PUSH32 0x8C379A000000000000000000000000000000000000000000000000000000000 DUP2 MSTORE PUSH1 0x4 ADD PUSH2 0x1050 SWAP1 PUSH2 0x1CB7 JUMP JUMPDEST PUSH1 0x40 MLOAD DUP1 SWAP2 SUB SWAP1 REVERT JUMPDEST PUSH1 0x2 PUSH1 0x4 PUSH1 0x0 DUP7 DUP2 MSTORE PUSH1 0x20 ADD SWAP1 DUP2 MSTORE PUSH1 0x20 ADD PUSH1 0x0 KECCAK256 PUSH1 0x0 CALLER PUSH20 0xFFFFFFFFFFFFFFFFFFFFFFFFFFFFFFFFFFFFFFFF AND PUSH20 0xFFFFFFFFFFFFFFFFFFFFFFFFFFFFFFFFFFFFFFFF AND DUP2 MSTORE PUSH1 0x20 ADD SWAP1 DUP2 MSTORE PUSH1 0x20 ADD PUSH1 0x0 KECCAK256 PUSH1 0x0 PUSH2 0x100 EXP DUP2 SLOAD DUP2 PUSH1 0xFF MUL NOT AND SWAP1 DUP4 PUSH1 0x2 DUP2 GT ISZERO PUSH2 0x10CD JUMPI PUSH2 0x10CC PUSH2 0x17F5 JUMP JUMPDEST JUMPDEST MUL OR SWAP1 SSTORE POP DUP4 CALLER PUSH20 0xFFFFFFFFFFFFFFFFFFFFFFFFFFFFFFFFFFFFFFFF AND PUSH32 0x8DC2B2096831716168CFFD747478656D933F1E8E905500AA02153F1C5008C502 PUSH1 0x40 MLOAD PUSH1 0x40 MLOAD DUP1 SWAP2 SUB SWAP1 LOG3 POP POP POP POP JUMP JUMPDEST PUSH1 0x2 SLOAD DUP2 JUMP JUMPDEST DUP1 PUSH1 0x3 DUP1 SLOAD SWAP1 POP DUP2 LT PUSH2 0x116A JUMPI PUSH1 0x40 MLOAD PUSH32 0x8C379A000000000000000000000000000000000000000000000000000000000 DUP2 MSTORE PUSH1 0x4 ADD PUSH2 0x1161 SWAP1 PUSH2 0x1C1C JUMP JUMPDEST PUSH1 0x40 MLOAD DUP1 SWAP2 SUB SWAP1 REVERT JUMPDEST DUP2 PUSH1 0x0 PUSH1 0x2 DUP2 GT ISZERO PUSH2 0x117F JUMPI PUSH2 0x117E PUSH2 0x17F5 JUMP JUMPDEST JUMPDEST PUSH1 0x3 DUP3 DUP2 SLOAD DUP2 LT PUSH2 0x1193 JUMPI PUSH2 0x1192 PUSH2 0x1C3C JUMP JUMPDEST JUMPDEST SWAP1 PUSH1 0x0 MSTORE PUSH1 0x20 PUSH1 0x0 KECCAK256 SWAP1 PUSH1 0x5 MUL ADD PUSH1 0x4 ADD PUSH1 0x0 SWAP1 SLOAD SWAP1 PUSH2 0x100 EXP SWAP1 DIV PUSH1 0xFF AND PUSH1 0x2 DUP2 GT ISZERO PUSH2 0x11C4 JUMPI PUSH2 0x11C3 PUSH2 0x17F5 JUMP JUMPDEST JUMPDEST EQ PUSH2 0x1204 JUMPI PUSH1 0x40 MLOAD PUSH32 0x8C379A000000000000000000000000000000000000000000000000000000000 DUP2 MSTORE PUSH1 0x4 ADD PUSH2 0x11FB SWAP1 PUSH2 0x1CB7 JUMP JUMPDEST PUSH1 0x40 MLOAD DUP1 SWAP2 SUB SWAP1 REVERT JUMPDEST PUSH1 0x2 SLOAD PUSH2 0x1210 DUP5 PUSH2 0x13B1 JUMP JUMPDEST LT ISZERO PUSH2 0x1251 JUMPI PUSH1 0x40 MLOAD PUSH32 0x8C379A000000000000000000000000000000000000000000000000000000000 DUP2 MSTORE PUSH1 0x4 ADD PUSH2 0x1248 SWAP1 PUSH2 0x1EC8 JUMP JUMPDEST PUSH1 0x40 MLOAD DUP1 SWAP2 SUB SWAP1 REVERT JUMPDEST PUSH1 0x0 PUSH1 0x3 DUP5 DUP2 SLOAD DUP2 LT PUSH2 0x1267 JUMPI PUSH2 0x1266 PUSH2 0x1C3C JUMP JUMPDEST JUMPDEST SWAP1 PUSH1 0x0 MSTORE PUSH1 0x20 PUSH1 0x0 KECCAK256 SWAP1 PUSH1 0x5 MUL ADD SWAP1 POP PUSH1 0x1 DUP2 PUSH1 0x4 ADD PUSH1 0x0 PUSH2 0x100 EXP DUP2 SLOAD DUP2 PUSH1 0xFF MUL NOT AND SWAP1 DUP4 PUSH1 0x2 DUP2 GT ISZERO PUSH2 0x129F JUMPI PUSH2 0x129E PUSH2 0x17F5 JUMP JUMPDEST JUMPDEST MUL OR SWAP1 SSTORE POP PUSH1 0x0 DUP2 PUSH1 0x1 ADD PUSH1 0x0 SWAP1 SLOAD SWAP1 PUSH2 0x100 EXP SWAP1 DIV PUSH20 0xFFFFFFFFFFFFFFFFFFFFFFFFFFFFFFFFFFFFFFFF AND PUSH20 0xFFFFFFFFFFFFFFFFFFFFFFFFFFFFFFFFFFFFFFFF AND DUP3 PUSH1 0x2 ADD SLOAD DUP4 PUSH1 0x3 ADD PUSH1 0x40 MLOAD PUSH2 0x12F7 SWAP2 SWAP1 PUSH2 0x1F87 JUMP JUMPDEST PUSH1 0x0 PUSH1 0x40 MLOAD DUP1 DUP4 SUB DUP2 DUP6 DUP8 GAS CALL SWAP3 POP POP POP RETURNDATASIZE DUP1 PUSH1 0x0 DUP2 EQ PUSH2 0x1334 JUMPI PUSH1 0x40 MLOAD SWAP2 POP PUSH1 0x1F NOT PUSH1 0x3F RETURNDATASIZE ADD AND DUP3 ADD PUSH1 0x40 MSTORE RETURNDATASIZE DUP3 MSTORE RETURNDATASIZE PUSH1 0x0 PUSH1 0x20 DUP5 ADD RETURNDATACOPY PUSH2 0x1339 JUMP JUMPDEST PUSH1 0x60 SWAP2 POP JUMPDEST POP POP SWAP1 POP DUP1 PUSH2 0x137D JUMPI PUSH1 0x40 MLOAD PUSH32 0x8C379A000000000000000000000000000000000000000000000000000000000 DUP2 MSTORE PUSH1 0x4 ADD PUSH2 0x1374 SWAP1 PUSH2 0x1FEA JUMP JUMPDEST PUSH1 0x40 MLOAD DUP1 SWAP2 SUB SWAP1 REVERT JUMPDEST DUP5 PUSH32 0xDDB556F1D2C1EC821E910B019D3685B229DB152A0ECD517CA7E24B8BD7139289 PUSH1 0x40 MLOAD PUSH1 0x40 MLOAD DUP1 SWAP2 SUB SWAP1 LOG2 POP POP POP POP POP JUMP JUMPDEST PUSH1 0x0 DUP1 JUMPDEST PUSH1 0x0 DUP1 SLOAD SWAP1 POP DUP2 LT ISZERO PUSH2 0x14AC JUMPI PUSH1 0x1 PUSH1 0x2 DUP2 GT ISZERO PUSH2 0x13D6 JUMPI PUSH2 0x13D5 PUSH2 0x17F5 JUMP JUMPDEST JUMPDEST PUSH1 0x4 PUSH1 0x0 DUP6 DUP2 MSTORE PUSH1 0x20 ADD SWAP1 DUP2 MSTORE PUSH1 0x20 ADD PUSH1 0x0 KECCAK256 PUSH1 0x0 DUP1 DUP5 DUP2 SLOAD DUP2 LT PUSH2 0x13FE JUMPI PUSH2 0x13FD PUSH2 0x1C3C JUMP JUMPDEST JUMPDEST SWAP1 PUSH1 0x0 MSTORE PUSH1 0x20 PUSH1 0x0 KECCAK256 ADD PUSH1 0x0 SWAP1 SLOAD SWAP1 PUSH2 0x100 EXP SWAP1 DIV PUSH20 0xFFFFFFFFFFFFFFFFFFFFFFFFFFFFFFFFFFFFFFFF AND PUSH20 0xFFFFFFFFFFFFFFFFFFFFFFFFFFFFFFFFFFFFFFFF AND PUSH20 0xFFFFFFFFFFFFFFFFFFFFFFFFFFFFFFFFFFFFFFFF AND DUP2 MSTORE PUSH1 0x20 ADD SWAP1 DUP2 MSTORE PUSH1 0x20 ADD PUSH1 0x0 KECCAK256 PUSH1 0x0 SWAP1 SLOAD SWAP1 PUSH2 0x100 EXP SWAP1 DIV PUSH1 0xFF AND PUSH1 0x2 DUP2 GT ISZERO PUSH2 0x1483 JUMPI PUSH2 0x1482 PUSH2 0x17F5 JUMP JUMPDEST JUMPDEST EQ ISZERO PUSH2 0x1499 JUMPI PUSH1 0x1 DUP3 PUSH2 0x1496 SWAP2 SWAP1 PUSH2 0x200A JUMP JUMPDEST SWAP2 POP JUMPDEST DUP1 DUP1 PUSH2 0x14A4 SWAP1 PUSH2 0x2060 JUMP JUMPDEST SWAP2 POP POP PUSH2 0x13B5 JUMP JUMPDEST POP SWAP2 SWAP1 POP JUMP JUMPDEST DUP3 DUP1 SLOAD PUSH2 0x14BE SWAP1 PUSH2 0x1D72 JUMP JUMPDEST SWAP1 PUSH1 0x0 MSTORE PUSH1 0x20 PUSH1 0x0 KECCAK256 SWAP1 PUSH1 0x1F ADD PUSH1 0x20 SWAP1 DIV DUP2 ADD SWAP3 DUP3 PUSH2 0x14E0 JUMPI PUSH1 0x0 DUP6 SSTORE PUSH2 0x1527 JUMP JUMPDEST DUP3 PUSH1 0x1F LT PUSH2 0x14F9 JUMPI DUP1 MLOAD PUSH1 0xFF NOT AND DUP4 DUP1 ADD OR DUP6 SSTORE PUSH2 0x1527 JUMP JUMPDEST DUP3 DUP1 ADD PUSH1 0x1 ADD DUP6 SSTORE DUP3 ISZERO PUSH2 0x1527 JUMPI SWAP2 DUP3 ADD JUMPDEST DUP3 DUP2 GT ISZERO PUSH2 0x1526 JUMPI DUP3 MLOAD DUP3 SSTORE SWAP2 PUSH1 0x20 ADD SWAP2 SWAP1 PUSH1 0x1 ADD SWAP1 PUSH2 0x150B JUMP JUMPDEST JUMPDEST POP SWAP1 POP PUSH2 0x1534 SWAP2 SWAP1 PUSH2 0x1538 JUMP JUMPDEST POP SWAP1 JUMP JUMPDEST JUMPDEST DUP1 DUP3 GT ISZERO PUSH2 0x1551 JUMPI PUSH1 0x0 DUP2 PUSH1 0x0 SWAP1 SSTORE POP PUSH1 0x1 ADD PUSH2 0x1539 JUMP JUMPDEST POP SWAP1 JUMP JUMPDEST PUSH1 0x0 DUP2 SWAP1 POP SWAP2 SWAP1 POP JUMP JUMPDEST PUSH2 0x1568 DUP2 PUSH2 0x1555 JUMP JUMPDEST DUP3 MSTORE POP POP JUMP JUMPDEST PUSH1 0x0 PUSH1 0x20 DUP3 ADD SWAP1 POP PUSH2 0x1583 PUSH1 0x0 DUP4 ADD DUP5 PUSH2 0x155F JUMP JUMPDEST SWAP3 SWAP2 POP POP JUMP JUMPDEST PUSH1 0x0 DUP1 REVERT JUMPDEST PUSH2 0x1597 DUP2 PUSH2 0x1555 JUMP JUMPDEST DUP2 EQ PUSH2 0x15A2 JUMPI PUSH1 0x0 DUP1 REVERT JUMPDEST POP JUMP JUMPDEST PUSH1 0x0 DUP2 CALLDATALOAD SWAP1 POP PUSH2 0x15B4 DUP2 PUSH2 0x158E JUMP JUMPDEST SWAP3 SWAP2 POP POP JUMP JUMPDEST PUSH1 0x0 PUSH1 0x20 DUP3 DUP5 SUB SLT ISZERO PUSH2 0x15D0 JUMPI PUSH2 0x15CF PUSH2 0x1589 JUMP JUMPDEST JUMPDEST PUSH1 0x0 PUSH2 0x15DE DUP5 DUP3 DUP6 ADD PUSH2 0x15A5 JUMP JUMPDEST SWAP2 POP POP SWAP3 SWAP2 POP POP JUMP JUMPDEST PUSH1 0x0 PUSH20 0xFFFFFFFFFFFFFFFFFFFFFFFFFFFFFFFFFFFFFFFF DUP3 AND SWAP1 POP SWAP2 SWAP1 POP JUMP JUMPDEST PUSH1 0x0 PUSH2 0x1612 DUP3 PUSH2 0x15E7 JUMP JUMPDEST SWAP1 POP SWAP2 SWAP1 POP JUMP JUMPDEST PUSH2 0x1622 DUP2 PUSH2 0x1607 JUMP JUMPDEST DUP3 MSTORE POP POP JUMP JUMPDEST PUSH1 0x0 PUSH1 0x20 DUP3 ADD SWAP1 POP PUSH2 0x163D PUSH1 0x0 DUP4 ADD DUP5 PUSH2 0x1619 JUMP JUMPDEST SWAP3 SWAP2 POP POP JUMP JUMPDEST PUSH2 0x164C DUP2 PUSH2 0x1607 JUMP JUMPDEST DUP2 EQ PUSH2 0x1657 JUMPI PUSH1 0x0 DUP1 REVERT JUMPDEST POP JUMP JUMPDEST PUSH1 0x0 DUP2 CALLDATALOAD SWAP1 POP PUSH2 0x1669 DUP2 PUSH2 0x1643 JUMP JUMPDEST SWAP3 SWAP2 POP POP JUMP JUMPDEST PUSH1 0x0 DUP1 PUSH1 0x40 DUP4 DUP6 SUB SLT ISZERO PUSH2 0x1686 JUMPI PUSH2 0x1685 PUSH2 0x1589 JUMP JUMPDEST JUMPDEST PUSH1 0x0 PUSH2 0x1694 DUP6 DUP3 DUP7 ADD PUSH2 0x165A JUMP JUMPDEST SWAP3 POP POP PUSH1 0x20 PUSH2 0x16A5 DUP6 DUP3 DUP7 ADD PUSH2 0x15A5 JUMP JUMPDEST SWAP2 POP POP SWAP3 POP SWAP3 SWAP1 POP JUMP JUMPDEST PUSH1 0x0 PUSH1 0x20 DUP3 DUP5 SUB SLT ISZERO PUSH2 0x16C5 JUMPI PUSH2 0x16C4 PUSH2 0x1589 JUMP JUMPDEST JUMPDEST PUSH1 0x0 PUSH2 0x16D3 DUP5 DUP3 DUP6 ADD PUSH2 0x165A JUMP JUMPDEST SWAP2 POP POP SWAP3 SWAP2 POP POP JUMP JUMPDEST PUSH1 0x0 DUP2 ISZERO ISZERO SWAP1 POP SWAP2 SWAP1 POP JUMP JUMPDEST PUSH2 0x16F1 DUP2 PUSH2 0x16DC JUMP JUMPDEST DUP3 MSTORE POP POP JUMP JUMPDEST PUSH1 0x0 PUSH1 0x20 DUP3 ADD SWAP1 POP PUSH2 0x170C PUSH1 0x0 DUP4 ADD DUP5 PUSH2 0x16E8 JUMP JUMPDEST SWAP3 SWAP2 POP POP JUMP JUMPDEST PUSH1 0x0 DUP2 MLOAD SWAP1 POP SWAP2 SWAP1 POP JUMP JUMPDEST PUSH1 0x0 DUP3 DUP3 MSTORE PUSH1 0x20 DUP3 ADD SWAP1 POP SWAP3 SWAP2 POP POP JUMP JUMPDEST PUSH1 0x0 DUP2 SWAP1 POP PUSH1 0x20 DUP3 ADD SWAP1 POP SWAP2 SWAP1 POP JUMP JUMPDEST PUSH2 0x1747 DUP2 PUSH2 0x1555 JUMP JUMPDEST DUP3 MSTORE POP POP JUMP JUMPDEST PUSH2 0x1756 DUP2 PUSH2 0x1607 JUMP JUMPDEST DUP3 MSTORE POP POP JUMP JUMPDEST PUSH1 0x0 DUP2 MLOAD SWAP1 POP SWAP2 SWAP1 POP JUMP JUMPDEST PUSH1 0x0 DUP3 DUP3 MSTORE PUSH1 0x20 DUP3 ADD SWAP1 POP SWAP3 SWAP2 POP POP JUMP JUMPDEST PUSH1 0x0 JUMPDEST DUP4 DUP2 LT ISZERO PUSH2 0x1796 JUMPI DUP1 DUP3 ADD MLOAD DUP2 DUP5 ADD MSTORE PUSH1 0x20 DUP2 ADD SWAP1 POP PUSH2 0x177B JUMP JUMPDEST DUP4 DUP2 GT ISZERO PUSH2 0x17A5 JUMPI PUSH1 0x0 DUP5 DUP5 ADD MSTORE JUMPDEST POP POP POP POP JUMP JUMPDEST PUSH1 0x0 PUSH1 0x1F NOT PUSH1 0x1F DUP4 ADD AND SWAP1 POP SWAP2 SWAP1 POP JUMP JUMPDEST PUSH1 0x0 PUSH2 0x17C7 DUP3 PUSH2 0x175C JUMP JUMPDEST PUSH2 0x17D1 DUP2 DUP6 PUSH2 0x1767 JUMP JUMPDEST SWAP4 POP PUSH2 0x17E1 DUP2 DUP6 PUSH1 0x20 DUP7 ADD PUSH2 0x1778 JUMP JUMPDEST PUSH2 0x17EA DUP2 PUSH2 0x17AB JUMP JUMPDEST DUP5 ADD SWAP2 POP POP SWAP3 SWAP2 POP POP JUMP JUMPDEST PUSH32 0x4E487B7100000000000000000000000000000000000000000000000000000000 PUSH1 0x0 MSTORE PUSH1 0x21 PUSH1 0x4 MSTORE PUSH1 0x24 PUSH1 0x0 REVERT JUMPDEST PUSH1 0x3 DUP2 LT PUSH2 0x1835 JUMPI PUSH2 0x1834 PUSH2 0x17F5 JUMP JUMPDEST JUMPDEST POP JUMP JUMPDEST PUSH1 0x0 DUP2 SWAP1 POP PUSH2 0x1846 DUP3 PUSH2 0x1824 JUMP JUMPDEST SWAP2 SWAP1 POP JUMP JUMPDEST PUSH1 0x0 PUSH2 0x1856 DUP3 PUSH2 0x1838 JUMP JUMPDEST SWAP1 POP SWAP2 SWAP1 POP JUMP JUMPDEST PUSH2 0x1866 DUP2 PUSH2 0x184B JUMP JUMPDEST DUP3 MSTORE POP POP JUMP JUMPDEST PUSH1 0x0 PUSH1 0xA0 DUP4 ADD PUSH1 0x0 DUP4 ADD MLOAD PUSH2 0x1884 PUSH1 0x0 DUP7 ADD DUP3 PUSH2 0x173E JUMP JUMPDEST POP PUSH1 0x20 DUP4 ADD MLOAD PUSH2 0x1897 PUSH1 0x20 DUP7 ADD DUP3 PUSH2 0x174D JUMP JUMPDEST POP PUSH1 0x40 DUP4 ADD MLOAD PUSH2 0x18AA PUSH1 0x40 DUP7 ADD DUP3 PUSH2 0x173E JUMP JUMPDEST POP PUSH1 0x60 DUP4 ADD MLOAD DUP5 DUP3 SUB PUSH1 0x60 DUP7 ADD MSTORE PUSH2 0x18C2 DUP3 DUP3 PUSH2 0x17BC JUMP JUMPDEST SWAP2 POP POP PUSH1 0x80 DUP4 ADD MLOAD PUSH2 0x18D7 PUSH1 0x80 DUP7 ADD DUP3 PUSH2 0x185D JUMP JUMPDEST POP DUP1 SWAP2 POP POP SWAP3 SWAP2 POP POP JUMP JUMPDEST PUSH1 0x0 PUSH2 0x18EE DUP4 DUP4 PUSH2 0x186C JUMP JUMPDEST SWAP1 POP SWAP3 SWAP2 POP POP JUMP JUMPDEST PUSH1 0x0 PUSH1 0x20 DUP3 ADD SWAP1 POP SWAP2 SWAP1 POP JUMP JUMPDEST PUSH1 0x0 PUSH2 0x190E DUP3 PUSH2 0x1712 JUMP JUMPDEST PUSH2 0x1918 DUP2 DUP6 PUSH2 0x171D JUMP JUMPDEST SWAP4 POP DUP4 PUSH1 0x20 DUP3 MUL DUP6 ADD PUSH2 0x192A DUP6 PUSH2 0x172E JUMP JUMPDEST DUP1 PUSH1 0x0 JUMPDEST DUP6 DUP2 LT ISZERO PUSH2 0x1966 JUMPI DUP5 DUP5 SUB DUP10 MSTORE DUP2 MLOAD PUSH2 0x1947 DUP6 DUP3 PUSH2 0x18E2 JUMP JUMPDEST SWAP5 POP PUSH2 0x1952 DUP4 PUSH2 0x18F6 JUMP JUMPDEST SWAP3 POP PUSH1 0x20 DUP11 ADD SWAP10 POP POP PUSH1 0x1 DUP2 ADD SWAP1 POP PUSH2 0x192E JUMP JUMPDEST POP DUP3 SWAP8 POP DUP8 SWAP6 POP POP POP POP POP POP SWAP3 SWAP2 POP POP JUMP JUMPDEST PUSH1 0x0 PUSH1 0x20 DUP3 ADD SWAP1 POP DUP2 DUP2 SUB PUSH1 0x0 DUP4 ADD MSTORE PUSH2 0x1992 DUP2 DUP5 PUSH2 0x1903 JUMP JUMPDEST SWAP1 POP SWAP3 SWAP2 POP POP JUMP JUMPDEST PUSH1 0x0 DUP3 DUP3 MSTORE PUSH1 0x20 DUP3 ADD SWAP1 POP SWAP3 SWAP2 POP POP JUMP JUMPDEST PUSH1 0x0 PUSH2 0x19B6 DUP3 PUSH2 0x175C JUMP JUMPDEST PUSH2 0x19C0 DUP2 DUP6 PUSH2 0x199A JUMP JUMPDEST SWAP4 POP PUSH2 0x19D0 DUP2 DUP6 PUSH1 0x20 DUP7 ADD PUSH2 0x1778 JUMP JUMPDEST PUSH2 0x19D9 DUP2 PUSH2 0x17AB JUMP JUMPDEST DUP5 ADD SWAP2 POP POP SWAP3 SWAP2 POP POP JUMP JUMPDEST PUSH2 0x19ED DUP2 PUSH2 0x184B JUMP JUMPDEST DUP3 MSTORE POP POP JUMP JUMPDEST PUSH1 0x0 PUSH1 0xA0 DUP3 ADD SWAP1 POP PUSH2 0x1A08 PUSH1 0x0 DUP4 ADD DUP9 PUSH2 0x155F JUMP JUMPDEST PUSH2 0x1A15 PUSH1 0x20 DUP4 ADD DUP8 PUSH2 0x1619 JUMP JUMPDEST PUSH2 0x1A22 PUSH1 0x40 DUP4 ADD DUP7 PUSH2 0x155F JUMP JUMPDEST DUP2 DUP2 SUB PUSH1 0x60 DUP4 ADD MSTORE PUSH2 0x1A34 DUP2 DUP6 PUSH2 0x19AB JUMP JUMPDEST SWAP1 POP PUSH2 0x1A43 PUSH1 0x80 DUP4 ADD DUP5 PUSH2 0x19E4 JUMP JUMPDEST SWAP7 SWAP6 POP POP POP POP POP POP JUMP JUMPDEST PUSH1 0x0 DUP1 PUSH1 0x40 DUP4 DUP6 SUB SLT ISZERO PUSH2 0x1A64 JUMPI PUSH2 0x1A63 PUSH2 0x1589 JUMP JUMPDEST JUMPDEST PUSH1 0x0 PUSH2 0x1A72 DUP6 DUP3 DUP7 ADD PUSH2 0x15A5 JUMP JUMPDEST SWAP3 POP POP PUSH1 0x20 PUSH2 0x1A83 DUP6 DUP3 DUP7 ADD PUSH2 0x165A JUMP JUMPDEST SWAP2 POP POP SWAP3 POP SWAP3 SWAP1 POP JUMP JUMPDEST PUSH1 0x3 DUP2 LT PUSH2 0x1A9E JUMPI PUSH2 0x1A9D PUSH2 0x17F5 JUMP JUMPDEST JUMPDEST POP JUMP JUMPDEST PUSH1 0x0 DUP2 SWAP1 POP PUSH2 0x1AAF DUP3 PUSH2 0x1A8D JUMP JUMPDEST SWAP2 SWAP1 POP JUMP JUMPDEST PUSH1 0x0 PUSH2 0x1ABF DUP3 PUSH2 0x1AA1 JUMP JUMPDEST SWAP1 POP SWAP2 SWAP1 POP JUMP JUMPDEST PUSH2 0x1ACF DUP2 PUSH2 0x1AB4 JUMP JUMPDEST DUP3 MSTORE POP POP JUMP JUMPDEST PUSH1 0x0 PUSH1 0x20 DUP3 ADD SWAP1 POP PUSH2 0x1AEA PUSH1 0x0 DUP4 ADD DUP5 PUSH2 0x1AC6 JUMP JUMPDEST SWAP3 SWAP2 POP POP JUMP JUMPDEST PUSH1 0x0 DUP3 DUP3 MSTORE PUSH1 0x20 DUP3 ADD SWAP1 POP SWAP3 SWAP2 POP POP JUMP JUMPDEST PUSH32 0x4E6F7420616E206F776E65720000000000000000000000000000000000000000 PUSH1 0x0 DUP3 ADD MSTORE POP JUMP JUMPDEST PUSH1 0x0 PUSH2 0x1B37 PUSH1 0xC DUP4 PUSH2 0x1AF0 JUMP JUMPDEST SWAP2 POP PUSH2 0x1B42 DUP3 PUSH2 0x1B01 JUMP JUMPDEST PUSH1 0x20 DUP3 ADD SWAP1 POP SWAP2 SWAP1 POP JUMP JUMPDEST PUSH1 0x0 PUSH1 0x20 DUP3 ADD SWAP1 POP DUP2 DUP2 SUB PUSH1 0x0 DUP4 ADD MSTORE PUSH2 0x1B66 DUP2 PUSH2 0x1B2A JUMP JUMPDEST SWAP1 POP SWAP2 SWAP1 POP JUMP JUMPDEST PUSH32 0x4E487B7100000000000000000000000000000000000000000000000000000000 PUSH1 0x0 MSTORE PUSH1 0x11 PUSH1 0x4 MSTORE PUSH1 0x24 PUSH1 0x0 REVERT JUMPDEST PUSH1 0x0 PUSH2 0x1BA7 DUP3 PUSH2 0x1555 JUMP JUMPDEST SWAP2 POP PUSH2 0x1BB2 DUP4 PUSH2 0x1555 JUMP JUMPDEST SWAP3 POP DUP3 DUP3 LT ISZERO PUSH2 0x1BC5 JUMPI PUSH2 0x1BC4 PUSH2 0x1B6D JUMP JUMPDEST JUMPDEST DUP3 DUP3 SUB SWAP1 POP SWAP3 SWAP2 POP POP JUMP JUMPDEST PUSH32 0x747820646F6573206E6F74206578697374000000000000000000000000000000 PUSH1 0x0 DUP3 ADD MSTORE POP JUMP JUMPDEST PUSH1 0x0 PUSH2 0x1C06 PUSH1 0x11 DUP4 PUSH2 0x1AF0 JUMP JUMPDEST SWAP2 POP PUSH2 0x1C11 DUP3 PUSH2 0x1BD0 JUMP JUMPDEST PUSH1 0x20 DUP3 ADD SWAP1 POP SWAP2 SWAP1 POP JUMP JUMPDEST PUSH1 0x0 PUSH1 0x20 DUP3 ADD SWAP1 POP DUP2 DUP2 SUB PUSH1 0x0 DUP4 ADD MSTORE PUSH2 0x1C35 DUP2 PUSH2 0x1BF9 JUMP JUMPDEST SWAP1 POP SWAP2 SWAP1 POP JUMP JUMPDEST PUSH32 0x4E487B7100000000000000000000000000000000000000000000000000000000 PUSH1 0x0 MSTORE PUSH1 0x32 PUSH1 0x4 MSTORE PUSH1 0x24 PUSH1 0x0 REVERT JUMPDEST PUSH32 0x747820616C726561647920657865637574656400000000000000000000000000 PUSH1 0x0 DUP3 ADD MSTORE POP JUMP JUMPDEST PUSH1 0x0 PUSH2 0x1CA1 PUSH1 0x13 DUP4 PUSH2 0x1AF0 JUMP JUMPDEST SWAP2 POP PUSH2 0x1CAC DUP3 PUSH2 0x1C6B JUMP JUMPDEST PUSH1 0x20 DUP3 ADD SWAP1 POP SWAP2 SWAP1 POP JUMP JUMPDEST PUSH1 0x0 PUSH1 0x20 DUP3 ADD SWAP1 POP DUP2 DUP2 SUB PUSH1 0x0 DUP4 ADD MSTORE PUSH2 0x1CD0 DUP2 PUSH2 0x1C94 JUMP JUMPDEST SWAP1 POP SWAP2 SWAP1 POP JUMP JUMPDEST PUSH32 0x7478206E6F7420617070726F7665640000000000000000000000000000000000 PUSH1 0x0 DUP3 ADD MSTORE POP JUMP JUMPDEST PUSH1 0x0 PUSH2 0x1D0D PUSH1 0xF DUP4 PUSH2 0x1AF0 JUMP JUMPDEST SWAP2 POP PUSH2 0x1D18 DUP3 PUSH2 0x1CD7 JUMP JUMPDEST PUSH1 0x20 DUP3 ADD SWAP1 POP SWAP2 SWAP1 POP JUMP JUMPDEST PUSH1 0x0 PUSH1 0x20 DUP3 ADD SWAP1 POP DUP2 DUP2 SUB PUSH1 0x0 DUP4 ADD MSTORE PUSH2 0x1D3C DUP2 PUSH2 0x1D00 JUMP JUMPDEST SWAP1 POP SWAP2 SWAP1 POP JUMP JUMPDEST PUSH32 0x4E487B7100000000000000000000000000000000000000000000000000000000 PUSH1 0x0 MSTORE PUSH1 0x22 PUSH1 0x4 MSTORE PUSH1 0x24 PUSH1 0x0 REVERT JUMPDEST PUSH1 0x0 PUSH1 0x2 DUP3 DIV SWAP1 POP PUSH1 0x1 DUP3 AND DUP1 PUSH2 0x1D8A JUMPI PUSH1 0x7F DUP3 AND SWAP2 POP JUMPDEST PUSH1 0x20 DUP3 LT DUP2 EQ ISZERO PUSH2 0x1D9E JUMPI PUSH2 0x1D9D PUSH2 0x1D43 JUMP JUMPDEST JUMPDEST POP SWAP2 SWAP1 POP JUMP JUMPDEST PUSH32 0x747820616C726561647920617070726F76656400000000000000000000000000 PUSH1 0x0 DUP3 ADD MSTORE POP JUMP JUMPDEST PUSH1 0x0 PUSH2 0x1DDA PUSH1 0x13 DUP4 PUSH2 0x1AF0 JUMP JUMPDEST SWAP2 POP PUSH2 0x1DE5 DUP3 PUSH2 0x1DA4 JUMP JUMPDEST PUSH1 0x20 DUP3 ADD SWAP1 POP SWAP2 SWAP1 POP JUMP JUMPDEST PUSH1 0x0 PUSH1 0x20 DUP3 ADD SWAP1 POP DUP2 DUP2 SUB PUSH1 0x0 DUP4 ADD MSTORE PUSH2 0x1E09 DUP2 PUSH2 0x1DCD JUMP JUMPDEST SWAP1 POP SWAP2 SWAP1 POP JUMP JUMPDEST PUSH32 0x747820616C72656164792072656A656374656400000000000000000000000000 PUSH1 0x0 DUP3 ADD MSTORE POP JUMP JUMPDEST PUSH1 0x0 PUSH2 0x1E46 PUSH1 0x13 DUP4 PUSH2 0x1AF0 JUMP JUMPDEST SWAP2 POP PUSH2 0x1E51 DUP3 PUSH2 0x1E10 JUMP JUMPDEST PUSH1 0x20 DUP3 ADD SWAP1 POP SWAP2 SWAP1 POP JUMP JUMPDEST PUSH1 0x0 PUSH1 0x20 DUP3 ADD SWAP1 POP DUP2 DUP2 SUB PUSH1 0x0 DUP4 ADD MSTORE PUSH2 0x1E75 DUP2 PUSH2 0x1E39 JUMP JUMPDEST SWAP1 POP SWAP2 SWAP1 POP JUMP JUMPDEST PUSH32 0x4E6F7420656E6F75676820617070726F76616C73000000000000000000000000 PUSH1 0x0 DUP3 ADD MSTORE POP JUMP JUMPDEST PUSH1 0x0 PUSH2 0x1EB2 PUSH1 0x14 DUP4 PUSH2 0x1AF0 JUMP JUMPDEST SWAP2 POP PUSH2 0x1EBD DUP3 PUSH2 0x1E7C JUMP JUMPDEST PUSH1 0x20 DUP3 ADD SWAP1 POP SWAP2 SWAP1 POP JUMP JUMPDEST PUSH1 0x0 PUSH1 0x20 DUP3 ADD SWAP1 POP DUP2 DUP2 SUB PUSH1 0x0 DUP4 ADD MSTORE PUSH2 0x1EE1 DUP2 PUSH2 0x1EA5 JUMP JUMPDEST SWAP1 POP SWAP2 SWAP1 POP JUMP JUMPDEST PUSH1 0x0 DUP2 SWAP1 POP SWAP3 SWAP2 POP POP JUMP JUMPDEST PUSH1 0x0 DUP2 SWAP1 POP DUP2 PUSH1 0x0 MSTORE PUSH1 0x20 PUSH1 0x0 KECCAK256 SWAP1 POP SWAP2 SWAP1 POP JUMP JUMPDEST PUSH1 0x0 DUP2 SLOAD PUSH2 0x1F15 DUP2 PUSH2 0x1D72 JUMP JUMPDEST PUSH2 0x1F1F DUP2 DUP7 PUSH2 0x1EE8 JUMP JUMPDEST SWAP5 POP PUSH1 0x1 DUP3 AND PUSH1 0x0 DUP2 EQ PUSH2 0x1F3A JUMPI PUSH1 0x1 DUP2 EQ PUSH2 0x1F4B JUMPI PUSH2 0x1F7E JUMP JUMPDEST PUSH1 0xFF NOT DUP4 AND DUP7 MSTORE DUP2 DUP7 ADD SWAP4 POP PUSH2 0x1F7E JUMP JUMPDEST PUSH2 0x1F54 DUP6 PUSH2 0x1EF3 JUMP JUMPDEST PUSH1 0x0 JUMPDEST DUP4 DUP2 LT ISZERO PUSH2 0x1F76 JUMPI DUP2 SLOAD DUP2 DUP10 ADD MSTORE PUSH1 0x1 DUP3 ADD SWAP2 POP PUSH1 0x20 DUP2 ADD SWAP1 POP PUSH2 0x1F57 JUMP JUMPDEST DUP4 DUP9 ADD SWAP6 POP POP POP JUMPDEST POP POP POP SWAP3 SWAP2 POP POP JUMP JUMPDEST PUSH1 0x0 PUSH2 0x1F93 DUP3 DUP5 PUSH2 0x1F08 JUMP JUMPDEST SWAP2 POP DUP2 SWAP1 POP SWAP3 SWAP2 POP POP JUMP JUMPDEST PUSH32 0x5472616E73616374696F6E206661696C65640000000000000000000000000000 PUSH1 0x0 DUP3 ADD MSTORE POP JUMP JUMPDEST PUSH1 0x0 PUSH2 0x1FD4 PUSH1 0x12 DUP4 PUSH2 0x1AF0 JUMP JUMPDEST SWAP2 POP PUSH2 0x1FDF DUP3 PUSH2 0x1F9E JUMP JUMPDEST PUSH1 0x20 DUP3 ADD SWAP1 POP SWAP2 SWAP1 POP JUMP JUMPDEST PUSH1 0x0 PUSH1 0x20 DUP3 ADD SWAP1 POP DUP2 DUP2 SUB PUSH1 0x0 DUP4 ADD MSTORE PUSH2 0x2003 DUP2 PUSH2 0x1FC7 JUMP JUMPDEST SWAP1 POP SWAP2 SWAP1 POP JUMP JUMPDEST PUSH1 0x0 PUSH2 0x2015 DUP3 PUSH2 0x1555 JUMP JUMPDEST SWAP2 POP PUSH2 0x2020 DUP4 PUSH2 0x1555 JUMP JUMPDEST SWAP3 POP DUP3 PUSH32 0xFFFFFFFFFFFFFFFFFFFFFFFFFFFFFFFFFFFFFFFFFFFFFFFFFFFFFFFFFFFFFFFF SUB DUP3 GT ISZERO PUSH2 0x2055 JUMPI PUSH2 0x2054 PUSH2 0x1B6D JUMP JUMPDEST JUMPDEST DUP3 DUP3 ADD SWAP1 POP SWAP3 SWAP2 POP POP JUMP JUMPDEST PUSH1 0x0 PUSH2 0x206B DUP3 PUSH2 0x1555 JUMP JUMPDEST SWAP2 POP PUSH32 0xFFFFFFFFFFFFFFFFFFFFFFFFFFFFFFFFFFFFFFFFFFFFFFFFFFFFFFFFFFFFFFFF DUP3 EQ ISZERO PUSH2 0x209E JUMPI PUSH2 0x209D PUSH2 0x1B6D JUMP JUMPDEST JUMPDEST PUSH1 0x1 DUP3 ADD SWAP1 POP SWAP2 SWAP1 POP JUMP INVALID LOG2 PUSH5 0x6970667358 0x22 SLT KECCAK256 GASPRICE 0x1E DUP1 0xB3 CALLDATASIZE 0x1E SWAP15 RETURNDATACOPY 0xD3 0x28 0x1E CALLVALUE 0xBE INVALID 0xAF 0xEC SLT 0xEF 0xBB DUP14 0xA7 0xC5 0x23 PUSH30 0xBFA67F65DCFABB6164736F6C634300080A00330000000000000000000000 "},"methodIdentifiers":{"approval(uint256,address)":"b848de35","approve(uint256)":"b759f954","execute(uint256)":"fe0d94c1","getTransactions()":"83920e90","isOwner(address)":"2f54bf6e","owners(uint256)":"025e7c27","reject(uint256)":"b8adaa11","required()":"dc8452cd","revoke(uint256)":"20c5429b","submit(address,uint256)":"203dd666","transactions(uint256)":"9ace38c2"}},"storageLayout":{"storage":[{"astId":52,"contract":"contracts/MultiSig.sol:MultiSig","label":"owners","offset":0,"slot":"0","type":"t_array(t_address)dyn_storage"},{"astId":56,"contract":"contracts/MultiSig.sol:MultiSig","label":"isOwner","offset":0,"slot":"1","type":"t_mapping(t_address,t_bool)"},{"astId":58,"contract":"contracts/MultiSig.sol:MultiSig","label":"required","offset":0,"slot":"2","type":"t_uint256"},{"astId":62,"contract":"contracts/MultiSig.sol:MultiSig","label":"transactions","offset":0,"slot":"3","type":"t_array(t_struct(Transaction)49_storage)dyn_storage"},{"astId":73,"contract":"contracts/MultiSig.sol:MultiSig","label":"approval","offset":0,"slot":"4","type":"t_mapping(t_uint256,t_mapping(t_address,t_enum(Approval)66))"}],"types":{"t_address":{"encoding":"inplace","label":"address","numberOfBytes":"20"},"t_array(t_address)dyn_storage":{"base":"t_address","encoding":"dynamic_array","label":"address[]","numberOfBytes":"32"},"t_array(t_struct(Transaction)49_storage)dyn_storage":{"base":"t_struct(Transaction)49_storage","encoding":"dynamic_array","label":"struct MultiSig.Transaction[]","numberOfBytes":"32"},"t_bool":{"encoding":"inplace","label":"bool","numberOfBytes":"1"},"t_bytes_storage":{"encoding":"bytes","label":"bytes","numberOfBytes":"32"},"t_enum(Approval)66":{"encoding":"inplace","label":"enum MultiSig.Approval","numberOfBytes":"1"},"t_enum(Status)37":{"encoding":"inplace","label":"enum MultiSig.Status","numberOfBytes":"1"},"t_mapping(t_address,t_bool)":{"encoding":"mapping","key":"t_address","label":"mapping(address => bool)","numberOfBytes":"32","value":"t_bool"},"t_mapping(t_address,t_enum(Approval)66)":{"encoding":"mapping","key":"t_address","label":"mapping(address => enum MultiSig.Approval)","numberOfBytes":"32","value":"t_enum(Approval)66"},"t_mapping(t_uint256,t_mapping(t_address,t_enum(Approval)66))":{"encoding":"mapping","key":"t_uint256","label":"mapping(uint256 => mapping(address => enum MultiSig.Approval))","numberOfBytes":"32","value":"t_mapping(t_address,t_enum(Approval)66)"},"t_struct(Transaction)49_storage":{"encoding":"inplace","label":"struct MultiSig.Transaction","members":[{"astId":39,"contract":"contracts/MultiSig.sol:MultiSig","label":"idx","offset":0,"slot":"0","type":"t_uint256"},{"astId":41,"contract":"contracts/MultiSig.sol:MultiSig","label":"to","offset":0,"slot":"1","type":"t_address"},{"astId":43,"contract":"contracts/MultiSig.sol:MultiSig","label":"value","offset":0,"slot":"2","type":"t_uint256"},{"astId":45,"contract":"contracts/MultiSig.sol:MultiSig","label":"data","offset":0,"slot":"3","type":"t_bytes_storage"},{"astId":48,"contract":"contracts/MultiSig.sol:MultiSig","label":"status","offset":0,"slot":"4","type":"t_enum(Status)37"}],"numberOfBytes":"160"},"t_uint256":{"encoding":"inplace","label":"uint256","numberOfBytes":"32"}}}}}}