{
  "_format": "hh-sol-artifact-1",
  "contractName": "MultiSig",
  "sourceName": "contracts/MultiSig.sol",
  "abi": [
    {
      "inputs": [
        {
          "internalType": "address[]",
          "name": "_owners",
          "type": "address[]"
        },
        {
          "internalType": "uint256",
          "name": "_required",
          "type": "uint256"
        }
      ],
      "stateMutability": "nonpayable",
      "type": "constructor"
    },
    {
      "anonymous": false,
      "inputs": [
        {
          "indexed": true,
          "internalType": "address",
          "name": "owner",
          "type": "address"
        },
        {
          "indexed": true,
          "internalType": "uint256",
          "name": "txId",
          "type": "uint256"
        }
      ],
      "name": "Approve",
      "type": "event"
    },
    {
      "anonymous": false,
      "inputs": [
        {
          "indexed": true,
          "internalType": "address",
          "name": "sender",
          "type": "address"
        },
        {
          "indexed": false,
          "internalType": "uint256",
          "name": "amount",
          "type": "uint256"
        }
      ],
      "name": "Deposit",
      "type": "event"
    },
    {
      "anonymous": false,
      "inputs": [
        {
          "indexed": true,
          "internalType": "uint256",
          "name": "txId",
          "type": "uint256"
        }
      ],
      "name": "Execute",
      "type": "event"
    },
    {
      "anonymous": false,
      "inputs": [
        {
          "indexed": true,
          "internalType": "address",
          "name": "owner",
          "type": "address"
        },
        {
          "indexed": true,
          "internalType": "uint256",
          "name": "txId",
          "type": "uint256"
        }
      ],
      "name": "Reject",
      "type": "event"
    },
    {
      "anonymous": false,
      "inputs": [
        {
          "indexed": true,
          "internalType": "address",
          "name": "owner",
          "type": "address"
        },
        {
          "indexed": true,
          "internalType": "uint256",
          "name": "txId",
          "type": "uint256"
        }
      ],
      "name": "Revoke",
      "type": "event"
    },
    {
      "anonymous": false,
      "inputs": [
        {
          "indexed": true,
          "internalType": "uint256",
          "name": "txId",
          "type": "uint256"
        }
      ],
      "name": "Submit",
      "type": "event"
    },
    {
      "inputs": [
        {
          "internalType": "uint256",
          "name": "",
          "type": "uint256"
        },
        {
          "internalType": "address",
          "name": "",
          "type": "address"
        }
      ],
      "name": "approval",
      "outputs": [
        {
          "internalType": "enum MultiSig.Approval",
          "name": "",
          "type": "uint8"
        }
      ],
      "stateMutability": "view",
      "type": "function"
    },
    {
      "inputs": [
        {
          "internalType": "uint256",
          "name": "_txId",
          "type": "uint256"
        }
      ],
      "name": "approve",
      "outputs": [],
      "stateMutability": "nonpayable",
      "type": "function"
    },
    {
      "inputs": [
        {
          "internalType": "uint256",
          "name": "_txId",
          "type": "uint256"
        }
      ],
      "name": "execute",
      "outputs": [],
      "stateMutability": "nonpayable",
      "type": "function"
    },
    {
      "inputs": [],
      "name": "getTransactions",
      "outputs": [
        {
          "components": [
            {
              "internalType": "uint256",
              "name": "idx",
              "type": "uint256"
            },
            {
              "internalType": "address",
              "name": "to",
              "type": "address"
            },
            {
              "internalType": "uint256",
              "name": "value",
              "type": "uint256"
            },
            {
              "internalType": "bytes",
              "name": "data",
              "type": "bytes"
            },
            {
              "internalType": "enum MultiSig.Status",
              "name": "status",
              "type": "uint8"
            }
          ],
          "internalType": "struct MultiSig.Transaction[]",
          "name": "",
          "type": "tuple[]"
        }
      ],
      "stateMutability": "view",
      "type": "function"
    },
    {
      "inputs": [
        {
          "internalType": "address",
          "name": "",
          "type": "address"
        }
      ],
      "name": "isOwner",
      "outputs": [
        {
          "internalType": "bool",
          "name": "",
          "type": "bool"
        }
      ],
      "stateMutability": "view",
      "type": "function"
    },
    {
      "inputs": [
        {
          "internalType": "uint256",
          "name": "",
          "type": "uint256"
        }
      ],
      "name": "owners",
      "outputs": [
        {
          "internalType": "address",
          "name": "",
          "type": "address"
        }
      ],
      "stateMutability": "view",
      "type": "function"
    },
    {
      "inputs": [
        {
          "internalType": "uint256",
          "name": "_txId",
          "type": "uint256"
        }
      ],
      "name": "reject",
      "outputs": [],
      "stateMutability": "nonpayable",
      "type": "function"
    },
    {
      "inputs": [],
      "name": "required",
      "outputs": [
        {
          "internalType": "uint256",
          "name": "",
          "type": "uint256"
        }
      ],
      "stateMutability": "view",
      "type": "function"
    },
    {
      "inputs": [
        {
          "internalType": "uint256",
          "name": "_txId",
          "type": "uint256"
        }
      ],
      "name": "revoke",
      "outputs": [],
      "stateMutability": "nonpayable",
      "type": "function"
    },
    {
      "inputs": [
        {
          "internalType": "address",
          "name": "_to",
          "type": "address"
        },
        {
          "internalType": "uint256",
          "name": "_value",
          "type": "uint256"
        }
      ],
      "name": "submit",
      "outputs": [],
      "stateMutability": "nonpayable",
      "type": "function"
    },
    {
      "inputs": [
        {
          "internalType": "uint256",
          "name": "",
          "type": "uint256"
        }
      ],
      "name": "transactions",
      "outputs": [
        {
          "internalType": "uint256",
          "name": "idx",
          "type": "uint256"
        },
        {
          "internalType": "address",
          "name": "to",
          "type": "address"
        },
        {
          "internalType": "uint256",
          "name": "value",
          "type": "uint256"
        },
        {
          "internalType": "bytes",
          "name": "data",
          "type": "bytes"
        },
        {
          "internalType": "enum MultiSig.Status",
          "name": "status",
          "type": "uint8"
        }
      ],
      "stateMutability": "view",
      "type": "function"
    },
    {
      "stateMutability": "payable",
      "type": "receive"
    }
  ],
  "bytecode": "0x60806040523480156200001157600080fd5b50604051620028e8380380620028e883398181016040528101906200003791906200050e565b60018251116200007e576040517f08c379a00000000000000000000000000000000000000000000000000000000081526004016200007590620005d5565b60405180910390fd5b60018111801562000090575081518111155b620000d2576040517f08c379a0000000000000000000000000000000000000000000000000000000008152600401620000c99062000647565b60405180910390fd5b60005b8251811015620002d5576000838281518110620000f757620000f662000669565b5b60200260200101519050600073ffffffffffffffffffffffffffffffffffffffff168173ffffffffffffffffffffffffffffffffffffffff16141562000174576040517f08c379a00000000000000000000000000000000000000000000000000000000081526004016200016b90620006e8565b60405180910390fd5b600160008273ffffffffffffffffffffffffffffffffffffffff1673ffffffffffffffffffffffffffffffffffffffff16815260200190815260200160002060009054906101000a900460ff161562000204576040517f08c379a0000000000000000000000000000000000000000000000000000000008152600401620001fb906200075a565b60405180910390fd5b60018060008373ffffffffffffffffffffffffffffffffffffffff1673ffffffffffffffffffffffffffffffffffffffff16815260200190815260200160002060006101000a81548160ff0219169083151502179055506000819080600181540180825580915050600190039060005260206000200160009091909190916101000a81548173ffffffffffffffffffffffffffffffffffffffff021916908373ffffffffffffffffffffffffffffffffffffffff160217905550508080620002cc90620007ab565b915050620000d5565b50806002819055505050620007f9565b6000604051905090565b600080fd5b600080fd5b600080fd5b6000601f19601f8301169050919050565b7f4e487b7100000000000000000000000000000000000000000000000000000000600052604160045260246000fd5b6200034982620002fe565b810181811067ffffffffffffffff821117156200036b576200036a6200030f565b5b80604052505050565b600062000380620002e5565b90506200038e82826200033e565b919050565b600067ffffffffffffffff821115620003b157620003b06200030f565b5b602082029050602081019050919050565b600080fd5b600073ffffffffffffffffffffffffffffffffffffffff82169050919050565b6000620003f482620003c7565b9050919050565b6200040681620003e7565b81146200041257600080fd5b50565b6000815190506200042681620003fb565b92915050565b6000620004436200043d8462000393565b62000374565b90508083825260208201905060208402830185811115620004695762000468620003c2565b5b835b8181101562000496578062000481888262000415565b8452602084019350506020810190506200046b565b5050509392505050565b600082601f830112620004b857620004b7620002f9565b5b8151620004ca8482602086016200042c565b91505092915050565b6000819050919050565b620004e881620004d3565b8114620004f457600080fd5b50565b6000815190506200050881620004dd565b92915050565b60008060408385031215620005285762000527620002ef565b5b600083015167ffffffffffffffff811115620005495762000548620002f4565b5b6200055785828601620004a0565b92505060206200056a85828601620004f7565b9150509250929050565b600082825260208201905092915050565b7f4174206c656173742074776f206f776e65727320617265207265717569726564600082015250565b6000620005bd60208362000574565b9150620005ca8262000585565b602082019050919050565b60006020820190508181036000830152620005f081620005ae565b9050919050565b7f496e76616c6964206e756d626572206f66207369676e65727300000000000000600082015250565b60006200062f60198362000574565b91506200063c82620005f7565b602082019050919050565b60006020820190508181036000830152620006628162000620565b9050919050565b7f4e487b7100000000000000000000000000000000000000000000000000000000600052603260045260246000fd5b7f4f776e65722063616e6e6f7420626520746865207a65726f2061646472657373600082015250565b6000620006d060208362000574565b9150620006dd8262000698565b602082019050919050565b600060208201905081810360008301526200070381620006c1565b9050919050565b7f4f776e65722063616e6e6f742062652061206475706c69636174650000000000600082015250565b600062000742601b8362000574565b91506200074f826200070a565b602082019050919050565b60006020820190508181036000830152620007758162000733565b9050919050565b7f4e487b7100000000000000000000000000000000000000000000000000000000600052601160045260246000fd5b6000620007b882620004d3565b91507fffffffffffffffffffffffffffffffffffffffffffffffffffffffffffffffff821415620007ee57620007ed6200077c565b5b600182019050919050565b6120df80620008096000396000f3fe6080604052600436106100a05760003560e01c80639ace38c2116100645780639ace38c2146101f1578063b759f95414610232578063b848de351461025b578063b8adaa1114610298578063dc8452cd146102c1578063fe0d94c1146102ec576100f5565b8063025e7c27146100fa578063203dd6661461013757806320c5429b146101605780632f54bf6e1461018957806383920e90146101c6576100f5565b366100f5573373ffffffffffffffffffffffffffffffffffffffff167fe1fffcc4923d04b559f4d29a8bfc6cda04eb5b0d3c460751c2402c5c5cc9109c346040516100eb919061156e565b60405180910390a2005b600080fd5b34801561010657600080fd5b50610121600480360381019061011c91906115ba565b610315565b60405161012e9190611628565b60405180910390f35b34801561014357600080fd5b5061015e6004803603810190610159919061166f565b610354565b005b34801561016c57600080fd5b50610187600480360381019061018291906115ba565b61055b565b005b34801561019557600080fd5b506101b060048036038101906101ab91906116af565b61084f565b6040516101bd91906116f7565b60405180910390f35b3480156101d257600080fd5b506101db61086f565b6040516101e89190611978565b60405180910390f35b3480156101fd57600080fd5b50610218600480360381019061021391906115ba565b610a05565b6040516102299594939291906119f3565b60405180910390f35b34801561023e57600080fd5b50610259600480360381019061025491906115ba565b610b00565b005b34801561026757600080fd5b50610282600480360381019061027d9190611a4d565b610df7565b60405161028f9190611ad5565b60405180910390f35b3480156102a457600080fd5b506102bf60048036038101906102ba91906115ba565b610e26565b005b3480156102cd57600080fd5b506102d661111c565b6040516102e3919061156e565b60405180910390f35b3480156102f857600080fd5b50610313600480360381019061030e91906115ba565b611122565b005b6000818154811061032557600080fd5b906000526020600020016000915054906101000a900473ffffffffffffffffffffffffffffffffffffffff1681565b600160003373ffffffffffffffffffffffffffffffffffffffff1673ffffffffffffffffffffffffffffffffffffffff16815260200190815260200160002060009054906101000a900460ff166103e0576040517f08c379a00000000000000000000000000000000000000000000000000000000081526004016103d790611b4d565b60405180910390fd5b60036040518060a0016040528060038054905081526020018473ffffffffffffffffffffffffffffffffffffffff16815260200183815260200160405180602001604052806000815250815260200160006002811115610443576104426117f5565b5b81525090806001815401808255809150506001900390600052602060002090600502016000909190919091506000820151816000015560208201518160010160006101000a81548173ffffffffffffffffffffffffffffffffffffffff021916908373ffffffffffffffffffffffffffffffffffffffff1602179055506040820151816002015560608201518160030190805190602001906104e69291906114b2565b5060808201518160040160006101000a81548160ff02191690836002811115610512576105116117f5565b5b02179055505050600160038054905061052b9190611b9c565b7f08324b3d745b914e3abd4ffbfead91e3b78391a98c173202129215ab933adfbe60405160405180910390a25050565b600160003373ffffffffffffffffffffffffffffffffffffffff1673ffffffffffffffffffffffffffffffffffffffff16815260200190815260200160002060009054906101000a900460ff166105e7576040517f08c379a00000000000000000000000000000000000000000000000000000000081526004016105de90611b4d565b60405180910390fd5b80600380549050811061062f576040517f08c379a000000000000000000000000000000000000000000000000000000000815260040161062690611c1c565b60405180910390fd5b8160006002811115610644576106436117f5565b5b6003828154811061065857610657611c3c565b5b906000526020600020906005020160040160009054906101000a900460ff166002811115610689576106886117f5565b5b146106c9576040517f08c379a00000000000000000000000000000000000000000000000000000000081526004016106c090611cb7565b60405180910390fd5b600160028111156106dd576106dc6117f5565b5b6004600085815260200190815260200160002060003373ffffffffffffffffffffffffffffffffffffffff1673ffffffffffffffffffffffffffffffffffffffff16815260200190815260200160002060009054906101000a900460ff16600281111561074d5761074c6117f5565b5b1461078d576040517f08c379a000000000000000000000000000000000000000000000000000000000815260040161078490611d23565b60405180910390fd5b60006004600085815260200190815260200160002060003373ffffffffffffffffffffffffffffffffffffffff1673ffffffffffffffffffffffffffffffffffffffff16815260200190815260200160002060006101000a81548160ff02191690836002811115610801576108006117f5565b5b0217905550823373ffffffffffffffffffffffffffffffffffffffff167fec9ab91322523c899ede7830ec9bfc992b5981cdcc27b91162fb23de5791117b60405160405180910390a3505050565b60016020528060005260406000206000915054906101000a900460ff1681565b60606003805480602002602001604051908101604052809291908181526020016000905b828210156109fc57838290600052602060002090600502016040518060a0016040529081600082015481526020016001820160009054906101000a900473ffffffffffffffffffffffffffffffffffffffff1673ffffffffffffffffffffffffffffffffffffffff1673ffffffffffffffffffffffffffffffffffffffff1681526020016002820154815260200160038201805461093090611d72565b80601f016020809104026020016040519081016040528092919081815260200182805461095c90611d72565b80156109a95780601f1061097e576101008083540402835291602001916109a9565b820191906000526020600020905b81548152906001019060200180831161098c57829003601f168201915b505050505081526020016004820160009054906101000a900460ff1660028111156109d7576109d66117f5565b5b60028111156109e9576109e86117f5565b5b8152505081526020019060010190610893565b50505050905090565b60038181548110610a1557600080fd5b90600052602060002090600502016000915090508060000154908060010160009054906101000a900473ffffffffffffffffffffffffffffffffffffffff1690806002015490806003018054610a6a90611d72565b80601f0160208091040260200160405190810160405280929190818152602001828054610a9690611d72565b8015610ae35780601f10610ab857610100808354040283529160200191610ae3565b820191906000526020600020905b815481529060010190602001808311610ac657829003601f168201915b5050505050908060040160009054906101000a900460ff16905085565b600160003373ffffffffffffffffffffffffffffffffffffffff1673ffffffffffffffffffffffffffffffffffffffff16815260200190815260200160002060009054906101000a900460ff16610b8c576040517f08c379a0000000000000000000000000000000000000000000000000000000008152600401610b8390611b4d565b60405180910390fd5b806003805490508110610bd4576040517f08c379a0000000000000000000000000000000000000000000000000000000008152600401610bcb90611c1c565b60405180910390fd5b8160016002811115610be957610be86117f5565b5b6004600083815260200190815260200160002060003373ffffffffffffffffffffffffffffffffffffffff1673ffffffffffffffffffffffffffffffffffffffff16815260200190815260200160002060009054906101000a900460ff166002811115610c5957610c586117f5565b5b1415610c9a576040517f08c379a0000000000000000000000000000000000000000000000000000000008152600401610c9190611df0565b60405180910390fd5b8260006002811115610caf57610cae6117f5565b5b60038281548110610cc357610cc2611c3c565b5b906000526020600020906005020160040160009054906101000a900460ff166002811115610cf457610cf36117f5565b5b14610d34576040517f08c379a0000000000000000000000000000000000000000000000000000000008152600401610d2b90611cb7565b60405180910390fd5b60016004600086815260200190815260200160002060003373ffffffffffffffffffffffffffffffffffffffff1673ffffffffffffffffffffffffffffffffffffffff16815260200190815260200160002060006101000a81548160ff02191690836002811115610da857610da76117f5565b5b0217905550833373ffffffffffffffffffffffffffffffffffffffff167f90ec57f18fa7b15c6b8d5e4d1deb90796c74b2ff23d4d0cecad0cb42a96b312860405160405180910390a350505050565b60046020528160005260406000206020528060005260406000206000915091509054906101000a900460ff1681565b600160003373ffffffffffffffffffffffffffffffffffffffff1673ffffffffffffffffffffffffffffffffffffffff16815260200190815260200160002060009054906101000a900460ff16610eb2576040517f08c379a0000000000000000000000000000000000000000000000000000000008152600401610ea990611b4d565b60405180910390fd5b806003805490508110610efa576040517f08c379a0000000000000000000000000000000000000000000000000000000008152600401610ef190611c1c565b60405180910390fd5b81600280811115610f0e57610f0d6117f5565b5b6004600083815260200190815260200160002060003373ffffffffffffffffffffffffffffffffffffffff1673ffffffffffffffffffffffffffffffffffffffff16815260200190815260200160002060009054906101000a900460ff166002811115610f7e57610f7d6117f5565b5b1415610fbf576040517f08c379a0000000000000000000000000000000000000000000000000000000008152600401610fb690611e5c565b60405180910390fd5b8260006002811115610fd457610fd36117f5565b5b60038281548110610fe857610fe7611c3c565b5b906000526020600020906005020160040160009054906101000a900460ff166002811115611019576110186117f5565b5b14611059576040517f08c379a000000000000000000000000000000000000000000000000000000000815260040161105090611cb7565b60405180910390fd5b60026004600086815260200190815260200160002060003373ffffffffffffffffffffffffffffffffffffffff1673ffffffffffffffffffffffffffffffffffffffff16815260200190815260200160002060006101000a81548160ff021916908360028111156110cd576110cc6117f5565b5b0217905550833373ffffffffffffffffffffffffffffffffffffffff167f8dc2b2096831716168cffd747478656d933f1e8e905500aa02153f1c5008c50260405160405180910390a350505050565b60025481565b80600380549050811061116a576040517f08c379a000000000000000000000000000000000000000000000000000000000815260040161116190611c1c565b60405180910390fd5b816000600281111561117f5761117e6117f5565b5b6003828154811061119357611192611c3c565b5b906000526020600020906005020160040160009054906101000a900460ff1660028111156111c4576111c36117f5565b5b14611204576040517f08c379a00000000000000000000000000000000000000000000000000000000081526004016111fb90611cb7565b60405180910390fd5b600254611210846113b1565b1015611251576040517f08c379a000000000000000000000000000000000000000000000000000000000815260040161124890611ec8565b60405180910390fd5b60006003848154811061126757611266611c3c565b5b9060005260206000209060050201905060018160040160006101000a81548160ff0219169083600281111561129f5761129e6117f5565b5b021790555060008160010160009054906101000a900473ffffffffffffffffffffffffffffffffffffffff1673ffffffffffffffffffffffffffffffffffffffff168260020154836003016040516112f79190611f87565b60006040518083038185875af1925050503d8060008114611334576040519150601f19603f3d011682016040523d82523d6000602084013e611339565b606091505b505090508061137d576040517f08c379a000000000000000000000000000000000000000000000000000000000815260040161137490611fea565b60405180910390fd5b847fddb556f1d2c1ec821e910b019d3685b229db152a0ecd517ca7e24b8bd713928960405160405180910390a25050505050565b6000805b6000805490508110156114ac57600160028111156113d6576113d56117f5565b5b6004600085815260200190815260200160002060008084815481106113fe576113fd611c3c565b5b9060005260206000200160009054906101000a900473ffffffffffffffffffffffffffffffffffffffff1673ffffffffffffffffffffffffffffffffffffffff1673ffffffffffffffffffffffffffffffffffffffff16815260200190815260200160002060009054906101000a900460ff166002811115611483576114826117f5565b5b141561149957600182611496919061200a565b91505b80806114a490612060565b9150506113b5565b50919050565b8280546114be90611d72565b90600052602060002090601f0160209004810192826114e05760008555611527565b82601f106114f957805160ff1916838001178555611527565b82800160010185558215611527579182015b8281111561152657825182559160200191906001019061150b565b5b5090506115349190611538565b5090565b5b80821115611551576000816000905550600101611539565b5090565b6000819050919050565b61156881611555565b82525050565b6000602082019050611583600083018461155f565b92915050565b600080fd5b61159781611555565b81146115a257600080fd5b50565b6000813590506115b48161158e565b92915050565b6000602082840312156115d0576115cf611589565b5b60006115de848285016115a5565b91505092915050565b600073ffffffffffffffffffffffffffffffffffffffff82169050919050565b6000611612826115e7565b9050919050565b61162281611607565b82525050565b600060208201905061163d6000830184611619565b92915050565b61164c81611607565b811461165757600080fd5b50565b60008135905061166981611643565b92915050565b6000806040838503121561168657611685611589565b5b60006116948582860161165a565b92505060206116a5858286016115a5565b9150509250929050565b6000602082840312156116c5576116c4611589565b5b60006116d38482850161165a565b91505092915050565b60008115159050919050565b6116f1816116dc565b82525050565b600060208201905061170c60008301846116e8565b92915050565b600081519050919050565b600082825260208201905092915050565b6000819050602082019050919050565b61174781611555565b82525050565b61175681611607565b82525050565b600081519050919050565b600082825260208201905092915050565b60005b8381101561179657808201518184015260208101905061177b565b838111156117a5576000848401525b50505050565b6000601f19601f8301169050919050565b60006117c78261175c565b6117d18185611767565b93506117e1818560208601611778565b6117ea816117ab565b840191505092915050565b7f4e487b7100000000000000000000000000000000000000000000000000000000600052602160045260246000fd5b60038110611835576118346117f5565b5b50565b600081905061184682611824565b919050565b600061185682611838565b9050919050565b6118668161184b565b82525050565b600060a083016000830151611884600086018261173e565b506020830151611897602086018261174d565b5060408301516118aa604086018261173e565b50606083015184820360608601526118c282826117bc565b91505060808301516118d7608086018261185d565b508091505092915050565b60006118ee838361186c565b905092915050565b6000602082019050919050565b600061190e82611712565b611918818561171d565b93508360208202850161192a8561172e565b8060005b85811015611966578484038952815161194785826118e2565b9450611952836118f6565b925060208a0199505060018101905061192e565b50829750879550505050505092915050565b600060208201905081810360008301526119928184611903565b905092915050565b600082825260208201905092915050565b60006119b68261175c565b6119c0818561199a565b93506119d0818560208601611778565b6119d9816117ab565b840191505092915050565b6119ed8161184b565b82525050565b600060a082019050611a08600083018861155f565b611a156020830187611619565b611a22604083018661155f565b8181036060830152611a3481856119ab565b9050611a4360808301846119e4565b9695505050505050565b60008060408385031215611a6457611a63611589565b5b6000611a72858286016115a5565b9250506020611a838582860161165a565b9150509250929050565b60038110611a9e57611a9d6117f5565b5b50565b6000819050611aaf82611a8d565b919050565b6000611abf82611aa1565b9050919050565b611acf81611ab4565b82525050565b6000602082019050611aea6000830184611ac6565b92915050565b600082825260208201905092915050565b7f4e6f7420616e206f776e65720000000000000000000000000000000000000000600082015250565b6000611b37600c83611af0565b9150611b4282611b01565b602082019050919050565b60006020820190508181036000830152611b6681611b2a565b9050919050565b7f4e487b7100000000000000000000000000000000000000000000000000000000600052601160045260246000fd5b6000611ba782611555565b9150611bb283611555565b925082821015611bc557611bc4611b6d565b5b828203905092915050565b7f747820646f6573206e6f74206578697374000000000000000000000000000000600082015250565b6000611c06601183611af0565b9150611c1182611bd0565b602082019050919050565b60006020820190508181036000830152611c3581611bf9565b9050919050565b7f4e487b7100000000000000000000000000000000000000000000000000000000600052603260045260246000fd5b7f747820616c726561647920657865637574656400000000000000000000000000600082015250565b6000611ca1601383611af0565b9150611cac82611c6b565b602082019050919050565b60006020820190508181036000830152611cd081611c94565b9050919050565b7f7478206e6f7420617070726f7665640000000000000000000000000000000000600082015250565b6000611d0d600f83611af0565b9150611d1882611cd7565b602082019050919050565b60006020820190508181036000830152611d3c81611d00565b9050919050565b7f4e487b7100000000000000000000000000000000000000000000000000000000600052602260045260246000fd5b60006002820490506001821680611d8a57607f821691505b60208210811415611d9e57611d9d611d43565b5b50919050565b7f747820616c726561647920617070726f76656400000000000000000000000000600082015250565b6000611dda601383611af0565b9150611de582611da4565b602082019050919050565b60006020820190508181036000830152611e0981611dcd565b9050919050565b7f747820616c72656164792072656a656374656400000000000000000000000000600082015250565b6000611e46601383611af0565b9150611e5182611e10565b602082019050919050565b60006020820190508181036000830152611e7581611e39565b9050919050565b7f4e6f7420656e6f75676820617070726f76616c73000000000000000000000000600082015250565b6000611eb2601483611af0565b9150611ebd82611e7c565b602082019050919050565b60006020820190508181036000830152611ee181611ea5565b9050919050565b600081905092915050565b60008190508160005260206000209050919050565b60008154611f1581611d72565b611f1f8186611ee8565b94506001821660008114611f3a5760018114611f4b57611f7e565b60ff19831686528186019350611f7e565b611f5485611ef3565b60005b83811015611f7657815481890152600182019150602081019050611f57565b838801955050505b50505092915050565b6000611f938284611f08565b915081905092915050565b7f5472616e73616374696f6e206661696c65640000000000000000000000000000600082015250565b6000611fd4601283611af0565b9150611fdf82611f9e565b602082019050919050565b6000602082019050818103600083015261200381611fc7565b9050919050565b600061201582611555565b915061202083611555565b9250827fffffffffffffffffffffffffffffffffffffffffffffffffffffffffffffffff0382111561205557612054611b6d565b5b828201905092915050565b600061206b82611555565b91507fffffffffffffffffffffffffffffffffffffffffffffffffffffffffffffffff82141561209e5761209d611b6d565b5b60018201905091905056fea26469706673582212203a1e80b3361e9e3ed3281e34befeafec12efbb8da7c5237dbfa67f65dcfabb6164736f6c634300080a0033",
  "linkReferences": {},
  "deployedLinkReferences": {}
}